{"contracts/Lock.sol":{"Lock":{"abi":[{"inputs":[{"internalType":"uint256","name":"_unlockTime","type":"uint256"}],"stateMutability":"payable","type":"constructor"},{"anonymous":false,"inputs":[{"indexed":false,"internalType":"uint256","name":"amount","type":"uint256"},{"indexed":false,"internalType":"uint256","name":"when","type":"uint256"}],"name":"Withdrawal","type":"event"},{"inputs":[],"name":"owner","outputs":[{"internalType":"address payable","name":"","type":"address"}],"stateMutability":"view","type":"function"},{"inputs":[],"name":"unlockTime","outputs":[{"internalType":"uint256","name":"","type":"uint256"}],"stateMutability":"view","type":"function"},{"inputs":[],"name":"withdraw","outputs":[],"stateMutability":"nonpayable","type":"function"}],"evm":{"bytecode":{"linkReferences":{},"object":"6080604052604051610798380380610798833981810160405281019061002591906101a9565b61003f67c9faf77a0ae2aab360c01b61016b60201b60201c565b610059678035fdc61f6fa54c60c01b61016b60201b60201c565b61007367a43d71d3463b4c3c60c01b61016b60201b60201c565b61008d67c5911cc07f75939460c01b61016b60201b60201c565b8042106100cf576040517f08c379a00000000000000000000000000000000000000000000000000000000081526004016100c690610259565b60405180910390fd5b6100e9678864e7b5ba2a3fb460c01b61016b60201b60201c565b61010367e2282c947bde64b860c01b61016b60201b60201c565b8060008190555061012467eacbf449a2764e3b60c01b61016b60201b60201c565b33600160006101000a81548173ffffffffffffffffffffffffffffffffffffffff021916908373ffffffffffffffffffffffffffffffffffffffff16021790555050610279565b50565b600080fd5b6000819050919050565b61018681610173565b811461019157600080fd5b50565b6000815190506101a38161017d565b92915050565b6000602082840312156101bf576101be61016e565b5b60006101cd84828501610194565b91505092915050565b600082825260208201905092915050565b7f556e6c6f636b2074696d652073686f756c6420626520696e207468652066757460008201527f7572650000000000000000000000000000000000000000000000000000000000602082015250565b60006102436023836101d6565b915061024e826101e7565b604082019050919050565b6000602082019050818103600083015261027281610236565b9050919050565b610510806102886000396000f3fe608060405234801561001057600080fd5b50600436106100415760003560e01c8063251c1aa3146100465780633ccfd60b146100645780638da5cb5b1461006e575b600080fd5b61004e61008c565b60405161005b9190610351565b60405180910390f35b61006c610092565b005b61007661030f565b60405161008391906103ad565b60405180910390f35b60005481565b6100a667e96d2153f1f4c22d60c01b610335565b6100ba67d54c9c8b3c78e07260c01b610335565b6100ce67244ea3fcef7eabae60c01b610335565b6100e2679e754528b5f8b7d260c01b610335565b600054421015610127576040517f08c379a000000000000000000000000000000000000000000000000000000000815260040161011e90610425565b60405180910390fd5b61013b6727d876fe560f9eba60c01b610335565b61014f67bec9f047b056c8b960c01b610335565b61016367981c1ee997af12c860c01b610335565b610177678bca22b7a96ed92c60c01b610335565b600160009054906101000a900473ffffffffffffffffffffffffffffffffffffffff1673ffffffffffffffffffffffffffffffffffffffff163373ffffffffffffffffffffffffffffffffffffffff1614610207576040517f08c379a00000000000000000000000000000000000000000000000000000000081526004016101fe90610491565b60405180910390fd5b61021b67e9c2c5fecd0cd87060c01b610335565b61022f670b95f129795e61b460c01b610335565b61024367d51d8cabd399cb8060c01b610335565b7fbf2ed60bd5b5965d685680c01195c9514e4382e28e3a5a2d2d5244bf59411b9347426040516102749291906104b1565b60405180910390a161029067b7a5397dc7bef31a60c01b610335565b6102a4679af9ac00c00c96aa60c01b610335565b600160009054906101000a900473ffffffffffffffffffffffffffffffffffffffff1673ffffffffffffffffffffffffffffffffffffffff166108fc479081150290604051600060405180830381858888f1935050505015801561030c573d6000803e3d6000fd5b50565b600160009054906101000a900473ffffffffffffffffffffffffffffffffffffffff1681565b50565b6000819050919050565b61034b81610338565b82525050565b60006020820190506103666000830184610342565b92915050565b600073ffffffffffffffffffffffffffffffffffffffff82169050919050565b60006103978261036c565b9050919050565b6103a78161038c565b82525050565b60006020820190506103c2600083018461039e565b92915050565b600082825260208201905092915050565b7f596f752063616e27742077697468647261772079657400000000000000000000600082015250565b600061040f6016836103c8565b915061041a826103d9565b602082019050919050565b6000602082019050818103600083015261043e81610402565b9050919050565b7f596f75206172656e277420746865206f776e6572000000000000000000000000600082015250565b600061047b6014836103c8565b915061048682610445565b602082019050919050565b600060208201905081810360008301526104aa8161046e565b9050919050565b60006040820190506104c66000830185610342565b6104d36020830184610342565b939250505056fea2646970667358221220b015f32a64b95c05a85068f096f3d69ef88f0aea63b97f7c159515f475314d8164736f6c63430008110033","opcodes":"PUSH1 0x80 PUSH1 0x40 MSTORE PUSH1 0x40 MLOAD PUSH2 0x798 CODESIZE SUB DUP1 PUSH2 0x798 DUP4 CODECOPY DUP2 DUP2 ADD PUSH1 0x40 MSTORE DUP2 ADD SWAP1 PUSH2 0x25 SWAP2 SWAP1 PUSH2 0x1A9 JUMP JUMPDEST PUSH2 0x3F PUSH8 0xC9FAF77A0AE2AAB3 PUSH1 0xC0 SHL PUSH2 0x16B PUSH1 0x20 SHL PUSH1 0x20 SHR JUMP JUMPDEST PUSH2 0x59 PUSH8 0x8035FDC61F6FA54C PUSH1 0xC0 SHL PUSH2 0x16B PUSH1 0x20 SHL PUSH1 0x20 SHR JUMP JUMPDEST PUSH2 0x73 PUSH8 0xA43D71D3463B4C3C PUSH1 0xC0 SHL PUSH2 0x16B PUSH1 0x20 SHL PUSH1 0x20 SHR JUMP JUMPDEST PUSH2 0x8D PUSH8 0xC5911CC07F759394 PUSH1 0xC0 SHL PUSH2 0x16B PUSH1 0x20 SHL PUSH1 0x20 SHR JUMP JUMPDEST DUP1 TIMESTAMP LT PUSH2 0xCF JUMPI PUSH1 0x40 MLOAD PUSH32 0x8C379A000000000000000000000000000000000000000000000000000000000 DUP2 MSTORE PUSH1 0x4 ADD PUSH2 0xC6 SWAP1 PUSH2 0x259 JUMP JUMPDEST PUSH1 0x40 MLOAD DUP1 SWAP2 SUB SWAP1 REVERT JUMPDEST PUSH2 0xE9 PUSH8 0x8864E7B5BA2A3FB4 PUSH1 0xC0 SHL PUSH2 0x16B PUSH1 0x20 SHL PUSH1 0x20 SHR JUMP JUMPDEST PUSH2 0x103 PUSH8 0xE2282C947BDE64B8 PUSH1 0xC0 SHL PUSH2 0x16B PUSH1 0x20 SHL PUSH1 0x20 SHR JUMP JUMPDEST DUP1 PUSH1 0x0 DUP2 SWAP1 SSTORE POP PUSH2 0x124 PUSH8 0xEACBF449A2764E3B PUSH1 0xC0 SHL PUSH2 0x16B PUSH1 0x20 SHL PUSH1 0x20 SHR JUMP JUMPDEST CALLER PUSH1 0x1 PUSH1 0x0 PUSH2 0x100 EXP DUP2 SLOAD DUP2 PUSH20 0xFFFFFFFFFFFFFFFFFFFFFFFFFFFFFFFFFFFFFFFF MUL NOT AND SWAP1 DUP4 PUSH20 0xFFFFFFFFFFFFFFFFFFFFFFFFFFFFFFFFFFFFFFFF AND MUL OR SWAP1 SSTORE POP POP PUSH2 0x279 JUMP JUMPDEST POP JUMP JUMPDEST PUSH1 0x0 DUP1 REVERT JUMPDEST PUSH1 0x0 DUP2 SWAP1 POP SWAP2 SWAP1 POP JUMP JUMPDEST PUSH2 0x186 DUP2 PUSH2 0x173 JUMP JUMPDEST DUP2 EQ PUSH2 0x191 JUMPI PUSH1 0x0 DUP1 REVERT JUMPDEST POP JUMP JUMPDEST PUSH1 0x0 DUP2 MLOAD SWAP1 POP PUSH2 0x1A3 DUP2 PUSH2 0x17D JUMP JUMPDEST SWAP3 SWAP2 POP POP JUMP JUMPDEST PUSH1 0x0 PUSH1 0x20 DUP3 DUP5 SUB SLT ISZERO PUSH2 0x1BF JUMPI PUSH2 0x1BE PUSH2 0x16E JUMP JUMPDEST JUMPDEST PUSH1 0x0 PUSH2 0x1CD DUP5 DUP3 DUP6 ADD PUSH2 0x194 JUMP JUMPDEST SWAP2 POP POP SWAP3 SWAP2 POP POP JUMP JUMPDEST PUSH1 0x0 DUP3 DUP3 MSTORE PUSH1 0x20 DUP3 ADD SWAP1 POP SWAP3 SWAP2 POP POP JUMP JUMPDEST PUSH32 0x556E6C6F636B2074696D652073686F756C6420626520696E2074686520667574 PUSH1 0x0 DUP3 ADD MSTORE PUSH32 0x7572650000000000000000000000000000000000000000000000000000000000 PUSH1 0x20 DUP3 ADD MSTORE POP JUMP JUMPDEST PUSH1 0x0 PUSH2 0x243 PUSH1 0x23 DUP4 PUSH2 0x1D6 JUMP JUMPDEST SWAP2 POP PUSH2 0x24E DUP3 PUSH2 0x1E7 JUMP JUMPDEST PUSH1 0x40 DUP3 ADD SWAP1 POP SWAP2 SWAP1 POP JUMP JUMPDEST PUSH1 0x0 PUSH1 0x20 DUP3 ADD SWAP1 POP DUP2 DUP2 SUB PUSH1 0x0 DUP4 ADD MSTORE PUSH2 0x272 DUP2 PUSH2 0x236 JUMP JUMPDEST SWAP1 POP SWAP2 SWAP1 POP JUMP JUMPDEST PUSH2 0x510 DUP1 PUSH2 0x288 PUSH1 0x0 CODECOPY PUSH1 0x0 RETURN INVALID PUSH1 0x80 PUSH1 0x40 MSTORE CALLVALUE DUP1 ISZERO PUSH2 0x10 JUMPI PUSH1 0x0 DUP1 REVERT JUMPDEST POP PUSH1 0x4 CALLDATASIZE LT PUSH2 0x41 JUMPI PUSH1 0x0 CALLDATALOAD PUSH1 0xE0 SHR DUP1 PUSH4 0x251C1AA3 EQ PUSH2 0x46 JUMPI DUP1 PUSH4 0x3CCFD60B EQ PUSH2 0x64 JUMPI DUP1 PUSH4 0x8DA5CB5B EQ PUSH2 0x6E JUMPI JUMPDEST PUSH1 0x0 DUP1 REVERT JUMPDEST PUSH2 0x4E PUSH2 0x8C JUMP JUMPDEST PUSH1 0x40 MLOAD PUSH2 0x5B SWAP2 SWAP1 PUSH2 0x351 JUMP JUMPDEST PUSH1 0x40 MLOAD DUP1 SWAP2 SUB SWAP1 RETURN JUMPDEST PUSH2 0x6C PUSH2 0x92 JUMP JUMPDEST STOP JUMPDEST PUSH2 0x76 PUSH2 0x30F JUMP JUMPDEST PUSH1 0x40 MLOAD PUSH2 0x83 SWAP2 SWAP1 PUSH2 0x3AD JUMP JUMPDEST PUSH1 0x40 MLOAD DUP1 SWAP2 SUB SWAP1 RETURN JUMPDEST PUSH1 0x0 SLOAD DUP2 JUMP JUMPDEST PUSH2 0xA6 PUSH8 0xE96D2153F1F4C22D PUSH1 0xC0 SHL PUSH2 0x335 JUMP JUMPDEST PUSH2 0xBA PUSH8 0xD54C9C8B3C78E072 PUSH1 0xC0 SHL PUSH2 0x335 JUMP JUMPDEST PUSH2 0xCE PUSH8 0x244EA3FCEF7EABAE PUSH1 0xC0 SHL PUSH2 0x335 JUMP JUMPDEST PUSH2 0xE2 PUSH8 0x9E754528B5F8B7D2 PUSH1 0xC0 SHL PUSH2 0x335 JUMP JUMPDEST PUSH1 0x0 SLOAD TIMESTAMP LT ISZERO PUSH2 0x127 JUMPI PUSH1 0x40 MLOAD PUSH32 0x8C379A000000000000000000000000000000000000000000000000000000000 DUP2 MSTORE PUSH1 0x4 ADD PUSH2 0x11E SWAP1 PUSH2 0x425 JUMP JUMPDEST PUSH1 0x40 MLOAD DUP1 SWAP2 SUB SWAP1 REVERT JUMPDEST PUSH2 0x13B PUSH8 0x27D876FE560F9EBA PUSH1 0xC0 SHL PUSH2 0x335 JUMP JUMPDEST PUSH2 0x14F PUSH8 0xBEC9F047B056C8B9 PUSH1 0xC0 SHL PUSH2 0x335 JUMP JUMPDEST PUSH2 0x163 PUSH8 0x981C1EE997AF12C8 PUSH1 0xC0 SHL PUSH2 0x335 JUMP JUMPDEST PUSH2 0x177 PUSH8 0x8BCA22B7A96ED92C PUSH1 0xC0 SHL PUSH2 0x335 JUMP JUMPDEST PUSH1 0x1 PUSH1 0x0 SWAP1 SLOAD SWAP1 PUSH2 0x100 EXP SWAP1 DIV PUSH20 0xFFFFFFFFFFFFFFFFFFFFFFFFFFFFFFFFFFFFFFFF AND PUSH20 0xFFFFFFFFFFFFFFFFFFFFFFFFFFFFFFFFFFFFFFFF AND CALLER PUSH20 0xFFFFFFFFFFFFFFFFFFFFFFFFFFFFFFFFFFFFFFFF AND EQ PUSH2 0x207 JUMPI PUSH1 0x40 MLOAD PUSH32 0x8C379A000000000000000000000000000000000000000000000000000000000 DUP2 MSTORE PUSH1 0x4 ADD PUSH2 0x1FE SWAP1 PUSH2 0x491 JUMP JUMPDEST PUSH1 0x40 MLOAD DUP1 SWAP2 SUB SWAP1 REVERT JUMPDEST PUSH2 0x21B PUSH8 0xE9C2C5FECD0CD870 PUSH1 0xC0 SHL PUSH2 0x335 JUMP JUMPDEST PUSH2 0x22F PUSH8 0xB95F129795E61B4 PUSH1 0xC0 SHL PUSH2 0x335 JUMP JUMPDEST PUSH2 0x243 PUSH8 0xD51D8CABD399CB80 PUSH1 0xC0 SHL PUSH2 0x335 JUMP JUMPDEST PUSH32 0xBF2ED60BD5B5965D685680C01195C9514E4382E28E3A5A2D2D5244BF59411B93 SELFBALANCE TIMESTAMP PUSH1 0x40 MLOAD PUSH2 0x274 SWAP3 SWAP2 SWAP1 PUSH2 0x4B1 JUMP JUMPDEST PUSH1 0x40 MLOAD DUP1 SWAP2 SUB SWAP1 LOG1 PUSH2 0x290 PUSH8 0xB7A5397DC7BEF31A PUSH1 0xC0 SHL PUSH2 0x335 JUMP JUMPDEST PUSH2 0x2A4 PUSH8 0x9AF9AC00C00C96AA PUSH1 0xC0 SHL PUSH2 0x335 JUMP JUMPDEST PUSH1 0x1 PUSH1 0x0 SWAP1 SLOAD SWAP1 PUSH2 0x100 EXP SWAP1 DIV PUSH20 0xFFFFFFFFFFFFFFFFFFFFFFFFFFFFFFFFFFFFFFFF AND PUSH20 0xFFFFFFFFFFFFFFFFFFFFFFFFFFFFFFFFFFFFFFFF AND PUSH2 0x8FC SELFBALANCE SWAP1 DUP2 ISZERO MUL SWAP1 PUSH1 0x40 MLOAD PUSH1 0x0 PUSH1 0x40 MLOAD DUP1 DUP4 SUB DUP2 DUP6 DUP9 DUP9 CALL SWAP4 POP POP POP POP ISZERO DUP1 ISZERO PUSH2 0x30C JUMPI RETURNDATASIZE PUSH1 0x0 DUP1 RETURNDATACOPY RETURNDATASIZE PUSH1 0x0 REVERT JUMPDEST POP JUMP JUMPDEST PUSH1 0x1 PUSH1 0x0 SWAP1 SLOAD SWAP1 PUSH2 0x100 EXP SWAP1 DIV PUSH20 0xFFFFFFFFFFFFFFFFFFFFFFFFFFFFFFFFFFFFFFFF AND DUP2 JUMP JUMPDEST POP JUMP JUMPDEST PUSH1 0x0 DUP2 SWAP1 POP SWAP2 SWAP1 POP JUMP JUMPDEST PUSH2 0x34B DUP2 PUSH2 0x338 JUMP JUMPDEST DUP3 MSTORE POP POP JUMP JUMPDEST PUSH1 0x0 PUSH1 0x20 DUP3 ADD SWAP1 POP PUSH2 0x366 PUSH1 0x0 DUP4 ADD DUP5 PUSH2 0x342 JUMP JUMPDEST SWAP3 SWAP2 POP POP JUMP JUMPDEST PUSH1 0x0 PUSH20 0xFFFFFFFFFFFFFFFFFFFFFFFFFFFFFFFFFFFFFFFF DUP3 AND SWAP1 POP SWAP2 SWAP1 POP JUMP JUMPDEST PUSH1 0x0 PUSH2 0x397 DUP3 PUSH2 0x36C JUMP JUMPDEST SWAP1 POP SWAP2 SWAP1 POP JUMP JUMPDEST PUSH2 0x3A7 DUP2 PUSH2 0x38C JUMP JUMPDEST DUP3 MSTORE POP POP JUMP JUMPDEST PUSH1 0x0 PUSH1 0x20 DUP3 ADD SWAP1 POP PUSH2 0x3C2 PUSH1 0x0 DUP4 ADD DUP5 PUSH2 0x39E JUMP JUMPDEST SWAP3 SWAP2 POP POP JUMP JUMPDEST PUSH1 0x0 DUP3 DUP3 MSTORE PUSH1 0x20 DUP3 ADD SWAP1 POP SWAP3 SWAP2 POP POP JUMP JUMPDEST PUSH32 0x596F752063616E27742077697468647261772079657400000000000000000000 PUSH1 0x0 DUP3 ADD MSTORE POP JUMP JUMPDEST PUSH1 0x0 PUSH2 0x40F PUSH1 0x16 DUP4 PUSH2 0x3C8 JUMP JUMPDEST SWAP2 POP PUSH2 0x41A DUP3 PUSH2 0x3D9 JUMP JUMPDEST PUSH1 0x20 DUP3 ADD SWAP1 POP SWAP2 SWAP1 POP JUMP JUMPDEST PUSH1 0x0 PUSH1 0x20 DUP3 ADD SWAP1 POP DUP2 DUP2 SUB PUSH1 0x0 DUP4 ADD MSTORE PUSH2 0x43E DUP2 PUSH2 0x402 JUMP JUMPDEST SWAP1 POP SWAP2 SWAP1 POP JUMP JUMPDEST PUSH32 0x596F75206172656E277420746865206F776E6572000000000000000000000000 PUSH1 0x0 DUP3 ADD MSTORE POP JUMP JUMPDEST PUSH1 0x0 PUSH2 0x47B PUSH1 0x14 DUP4 PUSH2 0x3C8 JUMP JUMPDEST SWAP2 POP PUSH2 0x486 DUP3 PUSH2 0x445 JUMP JUMPDEST PUSH1 0x20 DUP3 ADD SWAP1 POP SWAP2 SWAP1 POP JUMP JUMPDEST PUSH1 0x0 PUSH1 0x20 DUP3 ADD SWAP1 POP DUP2 DUP2 SUB PUSH1 0x0 DUP4 ADD MSTORE PUSH2 0x4AA DUP2 PUSH2 0x46E JUMP JUMPDEST SWAP1 POP SWAP2 SWAP1 POP JUMP JUMPDEST PUSH1 0x0 PUSH1 0x40 DUP3 ADD SWAP1 POP PUSH2 0x4C6 PUSH1 0x0 DUP4 ADD DUP6 PUSH2 0x342 JUMP JUMPDEST PUSH2 0x4D3 PUSH1 0x20 DUP4 ADD DUP5 PUSH2 0x342 JUMP JUMPDEST SWAP4 SWAP3 POP POP POP JUMP INVALID LOG2 PUSH5 0x6970667358 0x22 SLT KECCAK256 0xB0 ISZERO RETURN 0x2A PUSH5 0xB95C05A850 PUSH9 0xF096F3D69EF88F0AEA PUSH4 0xB97F7C15 SWAP6 ISZERO DELEGATECALL PUSH22 0x314D8164736F6C634300081100330000000000000000 "},"methodIdentifiers":{"owner()":"8da5cb5b","unlockTime()":"251c1aa3","withdraw()":"3ccfd60b"}}}}}