{"contracts/NFTDutchAuction_ERC20Bids.sol":{"NFTDutchAuction_ERC20Bids":{"abi":[{"inputs":[{"internalType":"address","name":"erc20TokenAddress","type":"address"},{"internalType":"address","name":"erc721TokenAddress","type":"address"},{"internalType":"uint256","name":"_nftTokenId","type":"uint256"},{"internalType":"uint256","name":"_reservePrice","type":"uint256"},{"internalType":"uint256","name":"_numBlocksAuctionOpen","type":"uint256"},{"internalType":"uint256","name":"_offerPriceDecrement","type":"uint256"}],"stateMutability":"nonpayable","type":"constructor"},{"inputs":[],"name":"auctionEnded","outputs":[{"internalType":"bool","name":"","type":"bool"}],"stateMutability":"view","type":"function"},{"inputs":[{"internalType":"uint256","name":"bidAmount","type":"uint256"}],"name":"bid","outputs":[{"internalType":"address","name":"","type":"address"}],"stateMutability":"nonpayable","type":"function"},{"inputs":[{"internalType":"address","name":"","type":"address"}],"name":"bidderTokens","outputs":[{"internalType":"uint256","name":"","type":"uint256"}],"stateMutability":"view","type":"function"},{"inputs":[{"internalType":"uint256","name":"","type":"uint256"}],"name":"bidders","outputs":[{"internalType":"address","name":"","type":"address"}],"stateMutability":"view","type":"function"},{"inputs":[],"name":"endsAtBlockNumber","outputs":[{"internalType":"uint256","name":"","type":"uint256"}],"stateMutability":"view","type":"function"},{"inputs":[],"name":"erc20TokenReference","outputs":[{"internalType":"contract IERC20","name":"","type":"address"}],"stateMutability":"view","type":"function"},{"inputs":[],"name":"finalPrice","outputs":[{"internalType":"uint256","name":"","type":"uint256"}],"stateMutability":"view","type":"function"},{"inputs":[],"name":"getCurrentPrice","outputs":[{"internalType":"uint256","name":"","type":"uint256"}],"stateMutability":"view","type":"function"},{"inputs":[],"name":"initialPrice","outputs":[{"internalType":"uint256","name":"","type":"uint256"}],"stateMutability":"view","type":"function"},{"inputs":[],"name":"nftTokenId","outputs":[{"internalType":"uint256","name":"","type":"uint256"}],"stateMutability":"view","type":"function"},{"inputs":[],"name":"nfterc721Reference","outputs":[{"internalType":"contract IERC721","name":"","type":"address"}],"stateMutability":"view","type":"function"},{"inputs":[],"name":"numBlocksAuctionOpen","outputs":[{"internalType":"uint256","name":"","type":"uint256"}],"stateMutability":"view","type":"function"},{"inputs":[],"name":"offerPriceDecrement","outputs":[{"internalType":"uint256","name":"","type":"uint256"}],"stateMutability":"view","type":"function"},{"inputs":[],"name":"owner","outputs":[{"internalType":"address","name":"","type":"address"}],"stateMutability":"view","type":"function"},{"inputs":[],"name":"reservePrice","outputs":[{"internalType":"uint256","name":"","type":"uint256"}],"stateMutability":"view","type":"function"},{"inputs":[],"name":"startAtBlockNumber","outputs":[{"internalType":"uint256","name":"","type":"uint256"}],"stateMutability":"view","type":"function"},{"inputs":[],"name":"totalBidTokens","outputs":[{"internalType":"uint256","name":"","type":"uint256"}],"stateMutability":"view","type":"function"}],"evm":{"bytecode":{"linkReferences":{},"object":"60a06040523480156200001157600080fd5b50604051620017523803806200175283398181016040528101906200003791906200037b565b6200005367da03256a17c55b6d60c01b620002d360201b60201c565b6200006f679ee6bd34406412d060c01b620002d360201b60201c565b3373ffffffffffffffffffffffffffffffffffffffff1660808173ffffffffffffffffffffffffffffffffffffffff1681525050620000bf67107686b95d30f37e60c01b620002d360201b60201c565b846000806101000a81548173ffffffffffffffffffffffffffffffffffffffff021916908373ffffffffffffffffffffffffffffffffffffffff1602179055506200011b67c17194936323514c60c01b620002d360201b60201c565b85600160006101000a81548173ffffffffffffffffffffffffffffffffffffffff021916908373ffffffffffffffffffffffffffffffffffffffff1602179055506200017867fbb63676cb2aad3f60c01b620002d360201b60201c565b836002819055506200019b67d0f377b42217428e60c01b620002d360201b60201c565b82600381905550620001be674d0b937b26ab4baf60c01b620002d360201b60201c565b81600481905550620001e167fe3845b2c9f1bdec60c01b620002d360201b60201c565b806005819055506200020467b09d360c4183f1ea60c01b620002d360201b60201c565b43600681905550620002276758b2b567089f8e1e60c01b620002d360201b60201c565b60045460065462000239919062000446565b6007819055506200025b67d5d8a44524798ed660c01b620002d360201b60201c565b60016005546004546200026f919062000481565b6200027b9190620004cc565b6003546200028a919062000446565b600881905550620002ac67a081641acfd7beea60c01b620002d360201b60201c565b6000600d60006101000a81548160ff02191690831515021790555050505050505062000507565b50565b600080fd5b600073ffffffffffffffffffffffffffffffffffffffff82169050919050565b60006200030882620002db565b9050919050565b6200031a81620002fb565b81146200032657600080fd5b50565b6000815190506200033a816200030f565b92915050565b6000819050919050565b620003558162000340565b81146200036157600080fd5b50565b60008151905062000375816200034a565b92915050565b60008060008060008060c087890312156200039b576200039a620002d6565b5b6000620003ab89828a0162000329565b9650506020620003be89828a0162000329565b9550506040620003d189828a0162000364565b9450506060620003e489828a0162000364565b9350506080620003f789828a0162000364565b92505060a06200040a89828a0162000364565b9150509295509295509295565b7f4e487b7100000000000000000000000000000000000000000000000000000000600052601160045260246000fd5b6000620004538262000340565b9150620004608362000340565b92508282019050808211156200047b576200047a62000417565b5b92915050565b60006200048e8262000340565b91506200049b8362000340565b9250828202620004ab8162000340565b91508282048414831517620004c557620004c462000417565b5b5092915050565b6000620004d98262000340565b9150620004e68362000340565b925082820390508181111562000501576200050062000417565b5b92915050565b60805161121a62000538600039600081816107220152818161085c015281816109380152610a3c015261121a6000f3fe608060405234801561001057600080fd5b506004361061010b5760003560e01c806386433374116100a2578063cff29dfd11610071578063cff29dfd1461029c578063d3642a88146102cc578063db2e1eed146102ea578063eb0d1e9214610308578063eb91d37e146103265761010b565b806386433374146102245780638da5cb5b14610242578063a6b513ee14610260578063a7b7dcfd1461027e5761010b565b80634362237e116100de5780634362237e1461019a578063454a2ab3146101b857806356eeb3b0146101e85780637e830574146102065761010b565b80630c298750146101105780631d0806ae1461012e57806330a012581461014c5780633103ea621461017c575b600080fd5b610118610344565b6040516101259190610c83565b60405180910390f35b610136610368565b6040516101439190610cb7565b60405180910390f35b61016660048036038101906101619190610d15565b61036e565b6040516101739190610cb7565b60405180910390f35b610184610386565b6040516101919190610cb7565b60405180910390f35b6101a261038c565b6040516101af9190610cb7565b60405180910390f35b6101d260048036038101906101cd9190610d6e565b610392565b6040516101df9190610daa565b60405180910390f35b6101f0610a1b565b6040516101fd9190610cb7565b60405180910390f35b61020e610a21565b60405161021b9190610cb7565b60405180910390f35b61022c610a27565b6040516102399190610de0565b60405180910390f35b61024a610a3a565b6040516102579190610daa565b60405180910390f35b610268610a5e565b6040516102759190610cb7565b60405180910390f35b610286610a64565b6040516102939190610cb7565b60405180910390f35b6102b660048036038101906102b19190610d6e565b610a6a565b6040516102c39190610daa565b60405180910390f35b6102d4610aa9565b6040516102e19190610cb7565b60405180910390f35b6102f2610aaf565b6040516102ff9190610cb7565b60405180910390f35b610310610ab5565b60405161031d9190610e1c565b60405180910390f35b61032e610adb565b60405161033b9190610cb7565b60405180910390f35b60008054906101000a900473ffffffffffffffffffffffffffffffffffffffff1681565b60085481565b600a6020528060005260406000206000915090505481565b60045481565b600c5481565b60006103a867c002c20c7fd0ce5660c01b610c01565b6103bc677053bb813eda9b1f60c01b610c01565b6103d0677d9cbe92fa0311b760c01b610c01565b6103e467a0bb5d7ac43027ac60c01b610c01565b600d60009054906101000a900460ff1615610434576040517f08c379a000000000000000000000000000000000000000000000000000000000815260040161042b90610e94565b60405180910390fd5b610448677c6b89478fd44a0760c01b610c01565b61045c6762a8a0f61b5b4e4060c01b610c01565b610470671514b4cad5d8c41460c01b610c01565b600454600654436104819190610ee3565b11156104cf5761049b678c9d54ae8f236a3860c01b610c01565b6104af6755daa1cfe233131b60c01b610c01565b6001600d60006101000a81548160ff0219169083151502179055506104e4565b6104e36779fa6687d55ecb5d60c01b610c01565b5b6104f867ea081123eaf1eff460c01b610c01565b61050c6741ff416f83fa19d660c01b610c01565b61052067c594060d48c1382060c01b610c01565b600454600654436105319190610ee3565b1115610572576040517f08c379a000000000000000000000000000000000000000000000000000000000815260040161056990610f63565b60405180910390fd5b61058667fd601d332163571360c01b610c01565b61059a67ccba04056e94d53460c01b610c01565b6105ae6713054102171fb77860c01b610c01565b6000600654436105be9190610ee3565b90506105d467326a233c053b83a560c01b610c01565b6105e867aa97077f8b5fbc8260c01b610c01565b60006001600554836105fa9190610f83565b6106049190610ee3565b6008546106119190610ee3565b90506106276769d3ccff7c5410b460c01b610c01565b61063b6715d787690e3ad52660c01b610c01565b61064f67343ed7c3c1255f2a60c01b610c01565b80841015610692576040517f08c379a000000000000000000000000000000000000000000000000000000000815260040161068990611011565b60405180910390fd5b6106a6676527bd3217c2ca9560c01b610c01565b6106ba6799febbc6bfb744c660c01b610c01565b6106ce67d2e23b437e445a3160c01b610c01565b6106e26748ef2d4d268cbd6660c01b610c01565b600160009054906101000a900473ffffffffffffffffffffffffffffffffffffffff1673ffffffffffffffffffffffffffffffffffffffff1663dd62ed3e7f0000000000000000000000000000000000000000000000000000000000000000336040518363ffffffff1660e01b815260040161075f929190611031565b602060405180830381865afa15801561077c573d6000803e3d6000fd5b505050506040513d601f19601f820116820180604052508101906107a0919061106f565b8411156107e2576040517f08c379a00000000000000000000000000000000000000000000000000000000081526004016107d990611134565b60405180910390fd5b6107f667ac435a0f06eef09f60c01b610c01565b61080a67112a1ebec4a2f76560c01b610c01565b61081e67643a90630a45f4d960c01b610c01565b60008054906101000a900473ffffffffffffffffffffffffffffffffffffffff1673ffffffffffffffffffffffffffffffffffffffff166323b872dd7f0000000000000000000000000000000000000000000000000000000000000000336002546040518463ffffffff1660e01b815260040161089d93929190611154565b600060405180830381600087803b1580156108b757600080fd5b505af11580156108cb573d6000803e3d6000fd5b505050506108e36707989a08c1f5a14160c01b610c01565b6108f767569586b40661fd7960c01b610c01565b600160009054906101000a900473ffffffffffffffffffffffffffffffffffffffff1673ffffffffffffffffffffffffffffffffffffffff166323b872dd337f0000000000000000000000000000000000000000000000000000000000000000876040518463ffffffff1660e01b815260040161097693929190611154565b6020604051808303816000875af1158015610995573d6000803e3d6000fd5b505050506040513d601f19601f820116820180604052508101906109b991906111b7565b506109ce6735672cfa5bc786e160c01b610c01565b6001600d60006101000a81548160ff0219169083151502179055506109fd67bd173824548edb7660c01b610c01565b610a1167180ba294007adc9860c01b610c01565b3392505050919050565b60065481565b60025481565b600d60009054906101000a900460ff1681565b7f000000000000000000000000000000000000000000000000000000000000000081565b60095481565b60075481565b600b8181548110610a7a57600080fd5b906000526020600020016000915054906101000a900473ffffffffffffffffffffffffffffffffffffffff1681565b60055481565b60035481565b600160009054906101000a900473ffffffffffffffffffffffffffffffffffffffff1681565b6000610af1670e755c8b4b67917060c01b610c01565b610b05674f19d10a7c05daf460c01b610c01565b610b196751a1a548d119e85060c01b610c01565b600060065443610b299190610ee3565b9050610b3f670453bcc4be75630f60c01b610c01565b610b536763fb1d3023d0823060c01b610c01565b6004548110610ba357610b7067b0d882a15b50d40360c01b610c01565b610b84673aa606411512c0b660c01b610c01565b610b9867f29f72d52675fe7060c01b610c01565b600354915050610bfe565b610bb767c6e987e0787a157a60c01b610c01565b610bcb67a722cc55df41a9b560c01b610c01565b610bdf6716f8fe68a698bff460c01b610c01565b60055481610bed9190610f83565b600854610bfa9190610ee3565b9150505b90565b50565b600073ffffffffffffffffffffffffffffffffffffffff82169050919050565b6000819050919050565b6000610c49610c44610c3f84610c04565b610c24565b610c04565b9050919050565b6000610c5b82610c2e565b9050919050565b6000610c6d82610c50565b9050919050565b610c7d81610c62565b82525050565b6000602082019050610c986000830184610c74565b92915050565b6000819050919050565b610cb181610c9e565b82525050565b6000602082019050610ccc6000830184610ca8565b92915050565b600080fd5b6000610ce282610c04565b9050919050565b610cf281610cd7565b8114610cfd57600080fd5b50565b600081359050610d0f81610ce9565b92915050565b600060208284031215610d2b57610d2a610cd2565b5b6000610d3984828501610d00565b91505092915050565b610d4b81610c9e565b8114610d5657600080fd5b50565b600081359050610d6881610d42565b92915050565b600060208284031215610d8457610d83610cd2565b5b6000610d9284828501610d59565b91505092915050565b610da481610cd7565b82525050565b6000602082019050610dbf6000830184610d9b565b92915050565b60008115159050919050565b610dda81610dc5565b82525050565b6000602082019050610df56000830184610dd1565b92915050565b6000610e0682610c50565b9050919050565b610e1681610dfb565b82525050565b6000602082019050610e316000830184610e0d565b92915050565b600082825260208201905092915050565b7f41756374696f6e2068617320616c726561647920656e64656400000000000000600082015250565b6000610e7e601983610e37565b9150610e8982610e48565b602082019050919050565b60006020820190508181036000830152610ead81610e71565b9050919050565b7f4e487b7100000000000000000000000000000000000000000000000000000000600052601160045260246000fd5b6000610eee82610c9e565b9150610ef983610c9e565b9250828203905081811115610f1157610f10610eb4565b5b92915050565b7f41756374696f6e20456e64656400000000000000000000000000000000000000600082015250565b6000610f4d600d83610e37565b9150610f5882610f17565b602082019050919050565b60006020820190508181036000830152610f7c81610f40565b9050919050565b6000610f8e82610c9e565b9150610f9983610c9e565b9250828202610fa781610c9e565b91508282048414831517610fbe57610fbd610eb4565b5b5092915050565b7f5468652062696420616d6f756e742073656e7420697320746f6f206c6f770000600082015250565b6000610ffb601e83610e37565b915061100682610fc5565b602082019050919050565b6000602082019050818103600083015261102a81610fee565b9050919050565b60006040820190506110466000830185610d9b565b6110536020830184610d9b565b9392505050565b60008151905061106981610d42565b92915050565b60006020828403121561108557611084610cd2565b5b60006110938482850161105a565b91505092915050565b7f42696420616d6f756e742061636365707465642c20627574206269642066616960008201527f6c65642062656361757365206e6f7420656e6f7567682062616c616e6365207460208201527f6f207472616e7366657220657263323020746f6b656e00000000000000000000604082015250565b600061111e605683610e37565b91506111298261109c565b606082019050919050565b6000602082019050818103600083015261114d81611111565b9050919050565b60006060820190506111696000830186610d9b565b6111766020830185610d9b565b6111836040830184610ca8565b949350505050565b61119481610dc5565b811461119f57600080fd5b50565b6000815190506111b18161118b565b92915050565b6000602082840312156111cd576111cc610cd2565b5b60006111db848285016111a2565b9150509291505056fea2646970667358221220d3606b752de0d504b41e0323f44f94268df881c09d193d8013074849378c6c3b64736f6c63430008110033","opcodes":"PUSH1 0xA0 PUSH1 0x40 MSTORE CALLVALUE DUP1 ISZERO PUSH3 0x11 JUMPI PUSH1 0x0 DUP1 REVERT JUMPDEST POP PUSH1 0x40 MLOAD PUSH3 0x1752 CODESIZE SUB DUP1 PUSH3 0x1752 DUP4 CODECOPY DUP2 DUP2 ADD PUSH1 0x40 MSTORE DUP2 ADD SWAP1 PUSH3 0x37 SWAP2 SWAP1 PUSH3 0x37B JUMP JUMPDEST PUSH3 0x53 PUSH8 0xDA03256A17C55B6D PUSH1 0xC0 SHL PUSH3 0x2D3 PUSH1 0x20 SHL PUSH1 0x20 SHR JUMP JUMPDEST PUSH3 0x6F PUSH8 0x9EE6BD34406412D0 PUSH1 0xC0 SHL PUSH3 0x2D3 PUSH1 0x20 SHL PUSH1 0x20 SHR JUMP JUMPDEST CALLER PUSH20 0xFFFFFFFFFFFFFFFFFFFFFFFFFFFFFFFFFFFFFFFF AND PUSH1 0x80 DUP2 PUSH20 0xFFFFFFFFFFFFFFFFFFFFFFFFFFFFFFFFFFFFFFFF AND DUP2 MSTORE POP POP PUSH3 0xBF PUSH8 0x107686B95D30F37E PUSH1 0xC0 SHL PUSH3 0x2D3 PUSH1 0x20 SHL PUSH1 0x20 SHR JUMP JUMPDEST DUP5 PUSH1 0x0 DUP1 PUSH2 0x100 EXP DUP2 SLOAD DUP2 PUSH20 0xFFFFFFFFFFFFFFFFFFFFFFFFFFFFFFFFFFFFFFFF MUL NOT AND SWAP1 DUP4 PUSH20 0xFFFFFFFFFFFFFFFFFFFFFFFFFFFFFFFFFFFFFFFF AND MUL OR SWAP1 SSTORE POP PUSH3 0x11B PUSH8 0xC17194936323514C PUSH1 0xC0 SHL PUSH3 0x2D3 PUSH1 0x20 SHL PUSH1 0x20 SHR JUMP JUMPDEST DUP6 PUSH1 0x1 PUSH1 0x0 PUSH2 0x100 EXP DUP2 SLOAD DUP2 PUSH20 0xFFFFFFFFFFFFFFFFFFFFFFFFFFFFFFFFFFFFFFFF MUL NOT AND SWAP1 DUP4 PUSH20 0xFFFFFFFFFFFFFFFFFFFFFFFFFFFFFFFFFFFFFFFF AND MUL OR SWAP1 SSTORE POP PUSH3 0x178 PUSH8 0xFBB63676CB2AAD3F PUSH1 0xC0 SHL PUSH3 0x2D3 PUSH1 0x20 SHL PUSH1 0x20 SHR JUMP JUMPDEST DUP4 PUSH1 0x2 DUP2 SWAP1 SSTORE POP PUSH3 0x19B PUSH8 0xD0F377B42217428E PUSH1 0xC0 SHL PUSH3 0x2D3 PUSH1 0x20 SHL PUSH1 0x20 SHR JUMP JUMPDEST DUP3 PUSH1 0x3 DUP2 SWAP1 SSTORE POP PUSH3 0x1BE PUSH8 0x4D0B937B26AB4BAF PUSH1 0xC0 SHL PUSH3 0x2D3 PUSH1 0x20 SHL PUSH1 0x20 SHR JUMP JUMPDEST DUP2 PUSH1 0x4 DUP2 SWAP1 SSTORE POP PUSH3 0x1E1 PUSH8 0xFE3845B2C9F1BDEC PUSH1 0xC0 SHL PUSH3 0x2D3 PUSH1 0x20 SHL PUSH1 0x20 SHR JUMP JUMPDEST DUP1 PUSH1 0x5 DUP2 SWAP1 SSTORE POP PUSH3 0x204 PUSH8 0xB09D360C4183F1EA PUSH1 0xC0 SHL PUSH3 0x2D3 PUSH1 0x20 SHL PUSH1 0x20 SHR JUMP JUMPDEST NUMBER PUSH1 0x6 DUP2 SWAP1 SSTORE POP PUSH3 0x227 PUSH8 0x58B2B567089F8E1E PUSH1 0xC0 SHL PUSH3 0x2D3 PUSH1 0x20 SHL PUSH1 0x20 SHR JUMP JUMPDEST PUSH1 0x4 SLOAD PUSH1 0x6 SLOAD PUSH3 0x239 SWAP2 SWAP1 PUSH3 0x446 JUMP JUMPDEST PUSH1 0x7 DUP2 SWAP1 SSTORE POP PUSH3 0x25B PUSH8 0xD5D8A44524798ED6 PUSH1 0xC0 SHL PUSH3 0x2D3 PUSH1 0x20 SHL PUSH1 0x20 SHR JUMP JUMPDEST PUSH1 0x1 PUSH1 0x5 SLOAD PUSH1 0x4 SLOAD PUSH3 0x26F SWAP2 SWAP1 PUSH3 0x481 JUMP JUMPDEST PUSH3 0x27B SWAP2 SWAP1 PUSH3 0x4CC JUMP JUMPDEST PUSH1 0x3 SLOAD PUSH3 0x28A SWAP2 SWAP1 PUSH3 0x446 JUMP JUMPDEST PUSH1 0x8 DUP2 SWAP1 SSTORE POP PUSH3 0x2AC PUSH8 0xA081641ACFD7BEEA PUSH1 0xC0 SHL PUSH3 0x2D3 PUSH1 0x20 SHL PUSH1 0x20 SHR JUMP JUMPDEST PUSH1 0x0 PUSH1 0xD PUSH1 0x0 PUSH2 0x100 EXP DUP2 SLOAD DUP2 PUSH1 0xFF MUL NOT AND SWAP1 DUP4 ISZERO ISZERO MUL OR SWAP1 SSTORE POP POP POP POP POP POP POP PUSH3 0x507 JUMP JUMPDEST POP JUMP JUMPDEST PUSH1 0x0 DUP1 REVERT JUMPDEST PUSH1 0x0 PUSH20 0xFFFFFFFFFFFFFFFFFFFFFFFFFFFFFFFFFFFFFFFF DUP3 AND SWAP1 POP SWAP2 SWAP1 POP JUMP JUMPDEST PUSH1 0x0 PUSH3 0x308 DUP3 PUSH3 0x2DB JUMP JUMPDEST SWAP1 POP SWAP2 SWAP1 POP JUMP JUMPDEST PUSH3 0x31A DUP2 PUSH3 0x2FB JUMP JUMPDEST DUP2 EQ PUSH3 0x326 JUMPI PUSH1 0x0 DUP1 REVERT JUMPDEST POP JUMP JUMPDEST PUSH1 0x0 DUP2 MLOAD SWAP1 POP PUSH3 0x33A DUP2 PUSH3 0x30F JUMP JUMPDEST SWAP3 SWAP2 POP POP JUMP JUMPDEST PUSH1 0x0 DUP2 SWAP1 POP SWAP2 SWAP1 POP JUMP JUMPDEST PUSH3 0x355 DUP2 PUSH3 0x340 JUMP JUMPDEST DUP2 EQ PUSH3 0x361 JUMPI PUSH1 0x0 DUP1 REVERT JUMPDEST POP JUMP JUMPDEST PUSH1 0x0 DUP2 MLOAD SWAP1 POP PUSH3 0x375 DUP2 PUSH3 0x34A JUMP JUMPDEST SWAP3 SWAP2 POP POP JUMP JUMPDEST PUSH1 0x0 DUP1 PUSH1 0x0 DUP1 PUSH1 0x0 DUP1 PUSH1 0xC0 DUP8 DUP10 SUB SLT ISZERO PUSH3 0x39B JUMPI PUSH3 0x39A PUSH3 0x2D6 JUMP JUMPDEST JUMPDEST PUSH1 0x0 PUSH3 0x3AB DUP10 DUP3 DUP11 ADD PUSH3 0x329 JUMP JUMPDEST SWAP7 POP POP PUSH1 0x20 PUSH3 0x3BE DUP10 DUP3 DUP11 ADD PUSH3 0x329 JUMP JUMPDEST SWAP6 POP POP PUSH1 0x40 PUSH3 0x3D1 DUP10 DUP3 DUP11 ADD PUSH3 0x364 JUMP JUMPDEST SWAP5 POP POP PUSH1 0x60 PUSH3 0x3E4 DUP10 DUP3 DUP11 ADD PUSH3 0x364 JUMP JUMPDEST SWAP4 POP POP PUSH1 0x80 PUSH3 0x3F7 DUP10 DUP3 DUP11 ADD PUSH3 0x364 JUMP JUMPDEST SWAP3 POP POP PUSH1 0xA0 PUSH3 0x40A DUP10 DUP3 DUP11 ADD PUSH3 0x364 JUMP JUMPDEST SWAP2 POP POP SWAP3 SWAP6 POP SWAP3 SWAP6 POP SWAP3 SWAP6 JUMP JUMPDEST PUSH32 0x4E487B7100000000000000000000000000000000000000000000000000000000 PUSH1 0x0 MSTORE PUSH1 0x11 PUSH1 0x4 MSTORE PUSH1 0x24 PUSH1 0x0 REVERT JUMPDEST PUSH1 0x0 PUSH3 0x453 DUP3 PUSH3 0x340 JUMP JUMPDEST SWAP2 POP PUSH3 0x460 DUP4 PUSH3 0x340 JUMP JUMPDEST SWAP3 POP DUP3 DUP3 ADD SWAP1 POP DUP1 DUP3 GT ISZERO PUSH3 0x47B JUMPI PUSH3 0x47A PUSH3 0x417 JUMP JUMPDEST JUMPDEST SWAP3 SWAP2 POP POP JUMP JUMPDEST PUSH1 0x0 PUSH3 0x48E DUP3 PUSH3 0x340 JUMP JUMPDEST SWAP2 POP PUSH3 0x49B DUP4 PUSH3 0x340 JUMP JUMPDEST SWAP3 POP DUP3 DUP3 MUL PUSH3 0x4AB DUP2 PUSH3 0x340 JUMP JUMPDEST SWAP2 POP DUP3 DUP3 DIV DUP5 EQ DUP4 ISZERO OR PUSH3 0x4C5 JUMPI PUSH3 0x4C4 PUSH3 0x417 JUMP JUMPDEST JUMPDEST POP SWAP3 SWAP2 POP POP JUMP JUMPDEST PUSH1 0x0 PUSH3 0x4D9 DUP3 PUSH3 0x340 JUMP JUMPDEST SWAP2 POP PUSH3 0x4E6 DUP4 PUSH3 0x340 JUMP JUMPDEST SWAP3 POP DUP3 DUP3 SUB SWAP1 POP DUP2 DUP2 GT ISZERO PUSH3 0x501 JUMPI PUSH3 0x500 PUSH3 0x417 JUMP JUMPDEST JUMPDEST SWAP3 SWAP2 POP POP JUMP JUMPDEST PUSH1 0x80 MLOAD PUSH2 0x121A PUSH3 0x538 PUSH1 0x0 CODECOPY PUSH1 0x0 DUP2 DUP2 PUSH2 0x722 ADD MSTORE DUP2 DUP2 PUSH2 0x85C ADD MSTORE DUP2 DUP2 PUSH2 0x938 ADD MSTORE PUSH2 0xA3C ADD MSTORE PUSH2 0x121A PUSH1 0x0 RETURN INVALID PUSH1 0x80 PUSH1 0x40 MSTORE CALLVALUE DUP1 ISZERO PUSH2 0x10 JUMPI PUSH1 0x0 DUP1 REVERT JUMPDEST POP PUSH1 0x4 CALLDATASIZE LT PUSH2 0x10B JUMPI PUSH1 0x0 CALLDATALOAD PUSH1 0xE0 SHR DUP1 PUSH4 0x86433374 GT PUSH2 0xA2 JUMPI DUP1 PUSH4 0xCFF29DFD GT PUSH2 0x71 JUMPI DUP1 PUSH4 0xCFF29DFD EQ PUSH2 0x29C JUMPI DUP1 PUSH4 0xD3642A88 EQ PUSH2 0x2CC JUMPI DUP1 PUSH4 0xDB2E1EED EQ PUSH2 0x2EA JUMPI DUP1 PUSH4 0xEB0D1E92 EQ PUSH2 0x308 JUMPI DUP1 PUSH4 0xEB91D37E EQ PUSH2 0x326 JUMPI PUSH2 0x10B JUMP JUMPDEST DUP1 PUSH4 0x86433374 EQ PUSH2 0x224 JUMPI DUP1 PUSH4 0x8DA5CB5B EQ PUSH2 0x242 JUMPI DUP1 PUSH4 0xA6B513EE EQ PUSH2 0x260 JUMPI DUP1 PUSH4 0xA7B7DCFD EQ PUSH2 0x27E JUMPI PUSH2 0x10B JUMP JUMPDEST DUP1 PUSH4 0x4362237E GT PUSH2 0xDE JUMPI DUP1 PUSH4 0x4362237E EQ PUSH2 0x19A JUMPI DUP1 PUSH4 0x454A2AB3 EQ PUSH2 0x1B8 JUMPI DUP1 PUSH4 0x56EEB3B0 EQ PUSH2 0x1E8 JUMPI DUP1 PUSH4 0x7E830574 EQ PUSH2 0x206 JUMPI PUSH2 0x10B JUMP JUMPDEST DUP1 PUSH4 0xC298750 EQ PUSH2 0x110 JUMPI DUP1 PUSH4 0x1D0806AE EQ PUSH2 0x12E JUMPI DUP1 PUSH4 0x30A01258 EQ PUSH2 0x14C JUMPI DUP1 PUSH4 0x3103EA62 EQ PUSH2 0x17C JUMPI JUMPDEST PUSH1 0x0 DUP1 REVERT JUMPDEST PUSH2 0x118 PUSH2 0x344 JUMP JUMPDEST PUSH1 0x40 MLOAD PUSH2 0x125 SWAP2 SWAP1 PUSH2 0xC83 JUMP JUMPDEST PUSH1 0x40 MLOAD DUP1 SWAP2 SUB SWAP1 RETURN JUMPDEST PUSH2 0x136 PUSH2 0x368 JUMP JUMPDEST PUSH1 0x40 MLOAD PUSH2 0x143 SWAP2 SWAP1 PUSH2 0xCB7 JUMP JUMPDEST PUSH1 0x40 MLOAD DUP1 SWAP2 SUB SWAP1 RETURN JUMPDEST PUSH2 0x166 PUSH1 0x4 DUP1 CALLDATASIZE SUB DUP2 ADD SWAP1 PUSH2 0x161 SWAP2 SWAP1 PUSH2 0xD15 JUMP JUMPDEST PUSH2 0x36E JUMP JUMPDEST PUSH1 0x40 MLOAD PUSH2 0x173 SWAP2 SWAP1 PUSH2 0xCB7 JUMP JUMPDEST PUSH1 0x40 MLOAD DUP1 SWAP2 SUB SWAP1 RETURN JUMPDEST PUSH2 0x184 PUSH2 0x386 JUMP JUMPDEST PUSH1 0x40 MLOAD PUSH2 0x191 SWAP2 SWAP1 PUSH2 0xCB7 JUMP JUMPDEST PUSH1 0x40 MLOAD DUP1 SWAP2 SUB SWAP1 RETURN JUMPDEST PUSH2 0x1A2 PUSH2 0x38C JUMP JUMPDEST PUSH1 0x40 MLOAD PUSH2 0x1AF SWAP2 SWAP1 PUSH2 0xCB7 JUMP JUMPDEST PUSH1 0x40 MLOAD DUP1 SWAP2 SUB SWAP1 RETURN JUMPDEST PUSH2 0x1D2 PUSH1 0x4 DUP1 CALLDATASIZE SUB DUP2 ADD SWAP1 PUSH2 0x1CD SWAP2 SWAP1 PUSH2 0xD6E JUMP JUMPDEST PUSH2 0x392 JUMP JUMPDEST PUSH1 0x40 MLOAD PUSH2 0x1DF SWAP2 SWAP1 PUSH2 0xDAA JUMP JUMPDEST PUSH1 0x40 MLOAD DUP1 SWAP2 SUB SWAP1 RETURN JUMPDEST PUSH2 0x1F0 PUSH2 0xA1B JUMP JUMPDEST PUSH1 0x40 MLOAD PUSH2 0x1FD SWAP2 SWAP1 PUSH2 0xCB7 JUMP JUMPDEST PUSH1 0x40 MLOAD DUP1 SWAP2 SUB SWAP1 RETURN JUMPDEST PUSH2 0x20E PUSH2 0xA21 JUMP JUMPDEST PUSH1 0x40 MLOAD PUSH2 0x21B SWAP2 SWAP1 PUSH2 0xCB7 JUMP JUMPDEST PUSH1 0x40 MLOAD DUP1 SWAP2 SUB SWAP1 RETURN JUMPDEST PUSH2 0x22C PUSH2 0xA27 JUMP JUMPDEST PUSH1 0x40 MLOAD PUSH2 0x239 SWAP2 SWAP1 PUSH2 0xDE0 JUMP JUMPDEST PUSH1 0x40 MLOAD DUP1 SWAP2 SUB SWAP1 RETURN JUMPDEST PUSH2 0x24A PUSH2 0xA3A JUMP JUMPDEST PUSH1 0x40 MLOAD PUSH2 0x257 SWAP2 SWAP1 PUSH2 0xDAA JUMP JUMPDEST PUSH1 0x40 MLOAD DUP1 SWAP2 SUB SWAP1 RETURN JUMPDEST PUSH2 0x268 PUSH2 0xA5E JUMP JUMPDEST PUSH1 0x40 MLOAD PUSH2 0x275 SWAP2 SWAP1 PUSH2 0xCB7 JUMP JUMPDEST PUSH1 0x40 MLOAD DUP1 SWAP2 SUB SWAP1 RETURN JUMPDEST PUSH2 0x286 PUSH2 0xA64 JUMP JUMPDEST PUSH1 0x40 MLOAD PUSH2 0x293 SWAP2 SWAP1 PUSH2 0xCB7 JUMP JUMPDEST PUSH1 0x40 MLOAD DUP1 SWAP2 SUB SWAP1 RETURN JUMPDEST PUSH2 0x2B6 PUSH1 0x4 DUP1 CALLDATASIZE SUB DUP2 ADD SWAP1 PUSH2 0x2B1 SWAP2 SWAP1 PUSH2 0xD6E JUMP JUMPDEST PUSH2 0xA6A JUMP JUMPDEST PUSH1 0x40 MLOAD PUSH2 0x2C3 SWAP2 SWAP1 PUSH2 0xDAA JUMP JUMPDEST PUSH1 0x40 MLOAD DUP1 SWAP2 SUB SWAP1 RETURN JUMPDEST PUSH2 0x2D4 PUSH2 0xAA9 JUMP JUMPDEST PUSH1 0x40 MLOAD PUSH2 0x2E1 SWAP2 SWAP1 PUSH2 0xCB7 JUMP JUMPDEST PUSH1 0x40 MLOAD DUP1 SWAP2 SUB SWAP1 RETURN JUMPDEST PUSH2 0x2F2 PUSH2 0xAAF JUMP JUMPDEST PUSH1 0x40 MLOAD PUSH2 0x2FF SWAP2 SWAP1 PUSH2 0xCB7 JUMP JUMPDEST PUSH1 0x40 MLOAD DUP1 SWAP2 SUB SWAP1 RETURN JUMPDEST PUSH2 0x310 PUSH2 0xAB5 JUMP JUMPDEST PUSH1 0x40 MLOAD PUSH2 0x31D SWAP2 SWAP1 PUSH2 0xE1C JUMP JUMPDEST PUSH1 0x40 MLOAD DUP1 SWAP2 SUB SWAP1 RETURN JUMPDEST PUSH2 0x32E PUSH2 0xADB JUMP JUMPDEST PUSH1 0x40 MLOAD PUSH2 0x33B SWAP2 SWAP1 PUSH2 0xCB7 JUMP JUMPDEST PUSH1 0x40 MLOAD DUP1 SWAP2 SUB SWAP1 RETURN JUMPDEST PUSH1 0x0 DUP1 SLOAD SWAP1 PUSH2 0x100 EXP SWAP1 DIV PUSH20 0xFFFFFFFFFFFFFFFFFFFFFFFFFFFFFFFFFFFFFFFF AND DUP2 JUMP JUMPDEST PUSH1 0x8 SLOAD DUP2 JUMP JUMPDEST PUSH1 0xA PUSH1 0x20 MSTORE DUP1 PUSH1 0x0 MSTORE PUSH1 0x40 PUSH1 0x0 KECCAK256 PUSH1 0x0 SWAP2 POP SWAP1 POP SLOAD DUP2 JUMP JUMPDEST PUSH1 0x4 SLOAD DUP2 JUMP JUMPDEST PUSH1 0xC SLOAD DUP2 JUMP JUMPDEST PUSH1 0x0 PUSH2 0x3A8 PUSH8 0xC002C20C7FD0CE56 PUSH1 0xC0 SHL PUSH2 0xC01 JUMP JUMPDEST PUSH2 0x3BC PUSH8 0x7053BB813EDA9B1F PUSH1 0xC0 SHL PUSH2 0xC01 JUMP JUMPDEST PUSH2 0x3D0 PUSH8 0x7D9CBE92FA0311B7 PUSH1 0xC0 SHL PUSH2 0xC01 JUMP JUMPDEST PUSH2 0x3E4 PUSH8 0xA0BB5D7AC43027AC PUSH1 0xC0 SHL PUSH2 0xC01 JUMP JUMPDEST PUSH1 0xD PUSH1 0x0 SWAP1 SLOAD SWAP1 PUSH2 0x100 EXP SWAP1 DIV PUSH1 0xFF AND ISZERO PUSH2 0x434 JUMPI PUSH1 0x40 MLOAD PUSH32 0x8C379A000000000000000000000000000000000000000000000000000000000 DUP2 MSTORE PUSH1 0x4 ADD PUSH2 0x42B SWAP1 PUSH2 0xE94 JUMP JUMPDEST PUSH1 0x40 MLOAD DUP1 SWAP2 SUB SWAP1 REVERT JUMPDEST PUSH2 0x448 PUSH8 0x7C6B89478FD44A07 PUSH1 0xC0 SHL PUSH2 0xC01 JUMP JUMPDEST PUSH2 0x45C PUSH8 0x62A8A0F61B5B4E40 PUSH1 0xC0 SHL PUSH2 0xC01 JUMP JUMPDEST PUSH2 0x470 PUSH8 0x1514B4CAD5D8C414 PUSH1 0xC0 SHL PUSH2 0xC01 JUMP JUMPDEST PUSH1 0x4 SLOAD PUSH1 0x6 SLOAD NUMBER PUSH2 0x481 SWAP2 SWAP1 PUSH2 0xEE3 JUMP JUMPDEST GT ISZERO PUSH2 0x4CF JUMPI PUSH2 0x49B PUSH8 0x8C9D54AE8F236A38 PUSH1 0xC0 SHL PUSH2 0xC01 JUMP JUMPDEST PUSH2 0x4AF PUSH8 0x55DAA1CFE233131B PUSH1 0xC0 SHL PUSH2 0xC01 JUMP JUMPDEST PUSH1 0x1 PUSH1 0xD PUSH1 0x0 PUSH2 0x100 EXP DUP2 SLOAD DUP2 PUSH1 0xFF MUL NOT AND SWAP1 DUP4 ISZERO ISZERO MUL OR SWAP1 SSTORE POP PUSH2 0x4E4 JUMP JUMPDEST PUSH2 0x4E3 PUSH8 0x79FA6687D55ECB5D PUSH1 0xC0 SHL PUSH2 0xC01 JUMP JUMPDEST JUMPDEST PUSH2 0x4F8 PUSH8 0xEA081123EAF1EFF4 PUSH1 0xC0 SHL PUSH2 0xC01 JUMP JUMPDEST PUSH2 0x50C PUSH8 0x41FF416F83FA19D6 PUSH1 0xC0 SHL PUSH2 0xC01 JUMP JUMPDEST PUSH2 0x520 PUSH8 0xC594060D48C13820 PUSH1 0xC0 SHL PUSH2 0xC01 JUMP JUMPDEST PUSH1 0x4 SLOAD PUSH1 0x6 SLOAD NUMBER PUSH2 0x531 SWAP2 SWAP1 PUSH2 0xEE3 JUMP JUMPDEST GT ISZERO PUSH2 0x572 JUMPI PUSH1 0x40 MLOAD PUSH32 0x8C379A000000000000000000000000000000000000000000000000000000000 DUP2 MSTORE PUSH1 0x4 ADD PUSH2 0x569 SWAP1 PUSH2 0xF63 JUMP JUMPDEST PUSH1 0x40 MLOAD DUP1 SWAP2 SUB SWAP1 REVERT JUMPDEST PUSH2 0x586 PUSH8 0xFD601D3321635713 PUSH1 0xC0 SHL PUSH2 0xC01 JUMP JUMPDEST PUSH2 0x59A PUSH8 0xCCBA04056E94D534 PUSH1 0xC0 SHL PUSH2 0xC01 JUMP JUMPDEST PUSH2 0x5AE PUSH8 0x13054102171FB778 PUSH1 0xC0 SHL PUSH2 0xC01 JUMP JUMPDEST PUSH1 0x0 PUSH1 0x6 SLOAD NUMBER PUSH2 0x5BE SWAP2 SWAP1 PUSH2 0xEE3 JUMP JUMPDEST SWAP1 POP PUSH2 0x5D4 PUSH8 0x326A233C053B83A5 PUSH1 0xC0 SHL PUSH2 0xC01 JUMP JUMPDEST PUSH2 0x5E8 PUSH8 0xAA97077F8B5FBC82 PUSH1 0xC0 SHL PUSH2 0xC01 JUMP JUMPDEST PUSH1 0x0 PUSH1 0x1 PUSH1 0x5 SLOAD DUP4 PUSH2 0x5FA SWAP2 SWAP1 PUSH2 0xF83 JUMP JUMPDEST PUSH2 0x604 SWAP2 SWAP1 PUSH2 0xEE3 JUMP JUMPDEST PUSH1 0x8 SLOAD PUSH2 0x611 SWAP2 SWAP1 PUSH2 0xEE3 JUMP JUMPDEST SWAP1 POP PUSH2 0x627 PUSH8 0x69D3CCFF7C5410B4 PUSH1 0xC0 SHL PUSH2 0xC01 JUMP JUMPDEST PUSH2 0x63B PUSH8 0x15D787690E3AD526 PUSH1 0xC0 SHL PUSH2 0xC01 JUMP JUMPDEST PUSH2 0x64F PUSH8 0x343ED7C3C1255F2A PUSH1 0xC0 SHL PUSH2 0xC01 JUMP JUMPDEST DUP1 DUP5 LT ISZERO PUSH2 0x692 JUMPI PUSH1 0x40 MLOAD PUSH32 0x8C379A000000000000000000000000000000000000000000000000000000000 DUP2 MSTORE PUSH1 0x4 ADD PUSH2 0x689 SWAP1 PUSH2 0x1011 JUMP JUMPDEST PUSH1 0x40 MLOAD DUP1 SWAP2 SUB SWAP1 REVERT JUMPDEST PUSH2 0x6A6 PUSH8 0x6527BD3217C2CA95 PUSH1 0xC0 SHL PUSH2 0xC01 JUMP JUMPDEST PUSH2 0x6BA PUSH8 0x99FEBBC6BFB744C6 PUSH1 0xC0 SHL PUSH2 0xC01 JUMP JUMPDEST PUSH2 0x6CE PUSH8 0xD2E23B437E445A31 PUSH1 0xC0 SHL PUSH2 0xC01 JUMP JUMPDEST PUSH2 0x6E2 PUSH8 0x48EF2D4D268CBD66 PUSH1 0xC0 SHL PUSH2 0xC01 JUMP JUMPDEST PUSH1 0x1 PUSH1 0x0 SWAP1 SLOAD SWAP1 PUSH2 0x100 EXP SWAP1 DIV PUSH20 0xFFFFFFFFFFFFFFFFFFFFFFFFFFFFFFFFFFFFFFFF AND PUSH20 0xFFFFFFFFFFFFFFFFFFFFFFFFFFFFFFFFFFFFFFFF AND PUSH4 0xDD62ED3E PUSH32 0x0 CALLER PUSH1 0x40 MLOAD DUP4 PUSH4 0xFFFFFFFF AND PUSH1 0xE0 SHL DUP2 MSTORE PUSH1 0x4 ADD PUSH2 0x75F SWAP3 SWAP2 SWAP1 PUSH2 0x1031 JUMP JUMPDEST PUSH1 0x20 PUSH1 0x40 MLOAD DUP1 DUP4 SUB DUP2 DUP7 GAS STATICCALL ISZERO DUP1 ISZERO PUSH2 0x77C JUMPI RETURNDATASIZE PUSH1 0x0 DUP1 RETURNDATACOPY RETURNDATASIZE PUSH1 0x0 REVERT JUMPDEST POP POP POP POP PUSH1 0x40 MLOAD RETURNDATASIZE PUSH1 0x1F NOT PUSH1 0x1F DUP3 ADD AND DUP3 ADD DUP1 PUSH1 0x40 MSTORE POP DUP2 ADD SWAP1 PUSH2 0x7A0 SWAP2 SWAP1 PUSH2 0x106F JUMP JUMPDEST DUP5 GT ISZERO PUSH2 0x7E2 JUMPI PUSH1 0x40 MLOAD PUSH32 0x8C379A000000000000000000000000000000000000000000000000000000000 DUP2 MSTORE PUSH1 0x4 ADD PUSH2 0x7D9 SWAP1 PUSH2 0x1134 JUMP JUMPDEST PUSH1 0x40 MLOAD DUP1 SWAP2 SUB SWAP1 REVERT JUMPDEST PUSH2 0x7F6 PUSH8 0xAC435A0F06EEF09F PUSH1 0xC0 SHL PUSH2 0xC01 JUMP JUMPDEST PUSH2 0x80A PUSH8 0x112A1EBEC4A2F765 PUSH1 0xC0 SHL PUSH2 0xC01 JUMP JUMPDEST PUSH2 0x81E PUSH8 0x643A90630A45F4D9 PUSH1 0xC0 SHL PUSH2 0xC01 JUMP JUMPDEST PUSH1 0x0 DUP1 SLOAD SWAP1 PUSH2 0x100 EXP SWAP1 DIV PUSH20 0xFFFFFFFFFFFFFFFFFFFFFFFFFFFFFFFFFFFFFFFF AND PUSH20 0xFFFFFFFFFFFFFFFFFFFFFFFFFFFFFFFFFFFFFFFF AND PUSH4 0x23B872DD PUSH32 0x0 CALLER PUSH1 0x2 SLOAD PUSH1 0x40 MLOAD DUP5 PUSH4 0xFFFFFFFF AND PUSH1 0xE0 SHL DUP2 MSTORE PUSH1 0x4 ADD PUSH2 0x89D SWAP4 SWAP3 SWAP2 SWAP1 PUSH2 0x1154 JUMP JUMPDEST PUSH1 0x0 PUSH1 0x40 MLOAD DUP1 DUP4 SUB DUP2 PUSH1 0x0 DUP8 DUP1 EXTCODESIZE ISZERO DUP1 ISZERO PUSH2 0x8B7 JUMPI PUSH1 0x0 DUP1 REVERT JUMPDEST POP GAS CALL ISZERO DUP1 ISZERO PUSH2 0x8CB JUMPI RETURNDATASIZE PUSH1 0x0 DUP1 RETURNDATACOPY RETURNDATASIZE PUSH1 0x0 REVERT JUMPDEST POP POP POP POP PUSH2 0x8E3 PUSH8 0x7989A08C1F5A141 PUSH1 0xC0 SHL PUSH2 0xC01 JUMP JUMPDEST PUSH2 0x8F7 PUSH8 0x569586B40661FD79 PUSH1 0xC0 SHL PUSH2 0xC01 JUMP JUMPDEST PUSH1 0x1 PUSH1 0x0 SWAP1 SLOAD SWAP1 PUSH2 0x100 EXP SWAP1 DIV PUSH20 0xFFFFFFFFFFFFFFFFFFFFFFFFFFFFFFFFFFFFFFFF AND PUSH20 0xFFFFFFFFFFFFFFFFFFFFFFFFFFFFFFFFFFFFFFFF AND PUSH4 0x23B872DD CALLER PUSH32 0x0 DUP8 PUSH1 0x40 MLOAD DUP5 PUSH4 0xFFFFFFFF AND PUSH1 0xE0 SHL DUP2 MSTORE PUSH1 0x4 ADD PUSH2 0x976 SWAP4 SWAP3 SWAP2 SWAP1 PUSH2 0x1154 JUMP JUMPDEST PUSH1 0x20 PUSH1 0x40 MLOAD DUP1 DUP4 SUB DUP2 PUSH1 0x0 DUP8 GAS CALL ISZERO DUP1 ISZERO PUSH2 0x995 JUMPI RETURNDATASIZE PUSH1 0x0 DUP1 RETURNDATACOPY RETURNDATASIZE PUSH1 0x0 REVERT JUMPDEST POP POP POP POP PUSH1 0x40 MLOAD RETURNDATASIZE PUSH1 0x1F NOT PUSH1 0x1F DUP3 ADD AND DUP3 ADD DUP1 PUSH1 0x40 MSTORE POP DUP2 ADD SWAP1 PUSH2 0x9B9 SWAP2 SWAP1 PUSH2 0x11B7 JUMP JUMPDEST POP PUSH2 0x9CE PUSH8 0x35672CFA5BC786E1 PUSH1 0xC0 SHL PUSH2 0xC01 JUMP JUMPDEST PUSH1 0x1 PUSH1 0xD PUSH1 0x0 PUSH2 0x100 EXP DUP2 SLOAD DUP2 PUSH1 0xFF MUL NOT AND SWAP1 DUP4 ISZERO ISZERO MUL OR SWAP1 SSTORE POP PUSH2 0x9FD PUSH8 0xBD173824548EDB76 PUSH1 0xC0 SHL PUSH2 0xC01 JUMP JUMPDEST PUSH2 0xA11 PUSH8 0x180BA294007ADC98 PUSH1 0xC0 SHL PUSH2 0xC01 JUMP JUMPDEST CALLER SWAP3 POP POP POP SWAP2 SWAP1 POP JUMP JUMPDEST PUSH1 0x6 SLOAD DUP2 JUMP JUMPDEST PUSH1 0x2 SLOAD DUP2 JUMP JUMPDEST PUSH1 0xD PUSH1 0x0 SWAP1 SLOAD SWAP1 PUSH2 0x100 EXP SWAP1 DIV PUSH1 0xFF AND DUP2 JUMP JUMPDEST PUSH32 0x0 DUP2 JUMP JUMPDEST PUSH1 0x9 SLOAD DUP2 JUMP JUMPDEST PUSH1 0x7 SLOAD DUP2 JUMP JUMPDEST PUSH1 0xB DUP2 DUP2 SLOAD DUP2 LT PUSH2 0xA7A JUMPI PUSH1 0x0 DUP1 REVERT JUMPDEST SWAP1 PUSH1 0x0 MSTORE PUSH1 0x20 PUSH1 0x0 KECCAK256 ADD PUSH1 0x0 SWAP2 POP SLOAD SWAP1 PUSH2 0x100 EXP SWAP1 DIV PUSH20 0xFFFFFFFFFFFFFFFFFFFFFFFFFFFFFFFFFFFFFFFF AND DUP2 JUMP JUMPDEST PUSH1 0x5 SLOAD DUP2 JUMP JUMPDEST PUSH1 0x3 SLOAD DUP2 JUMP JUMPDEST PUSH1 0x1 PUSH1 0x0 SWAP1 SLOAD SWAP1 PUSH2 0x100 EXP SWAP1 DIV PUSH20 0xFFFFFFFFFFFFFFFFFFFFFFFFFFFFFFFFFFFFFFFF AND DUP2 JUMP JUMPDEST PUSH1 0x0 PUSH2 0xAF1 PUSH8 0xE755C8B4B679170 PUSH1 0xC0 SHL PUSH2 0xC01 JUMP JUMPDEST PUSH2 0xB05 PUSH8 0x4F19D10A7C05DAF4 PUSH1 0xC0 SHL PUSH2 0xC01 JUMP JUMPDEST PUSH2 0xB19 PUSH8 0x51A1A548D119E850 PUSH1 0xC0 SHL PUSH2 0xC01 JUMP JUMPDEST PUSH1 0x0 PUSH1 0x6 SLOAD NUMBER PUSH2 0xB29 SWAP2 SWAP1 PUSH2 0xEE3 JUMP JUMPDEST SWAP1 POP PUSH2 0xB3F PUSH8 0x453BCC4BE75630F PUSH1 0xC0 SHL PUSH2 0xC01 JUMP JUMPDEST PUSH2 0xB53 PUSH8 0x63FB1D3023D08230 PUSH1 0xC0 SHL PUSH2 0xC01 JUMP JUMPDEST PUSH1 0x4 SLOAD DUP2 LT PUSH2 0xBA3 JUMPI PUSH2 0xB70 PUSH8 0xB0D882A15B50D403 PUSH1 0xC0 SHL PUSH2 0xC01 JUMP JUMPDEST PUSH2 0xB84 PUSH8 0x3AA606411512C0B6 PUSH1 0xC0 SHL PUSH2 0xC01 JUMP JUMPDEST PUSH2 0xB98 PUSH8 0xF29F72D52675FE70 PUSH1 0xC0 SHL PUSH2 0xC01 JUMP JUMPDEST PUSH1 0x3 SLOAD SWAP2 POP POP PUSH2 0xBFE JUMP JUMPDEST PUSH2 0xBB7 PUSH8 0xC6E987E0787A157A PUSH1 0xC0 SHL PUSH2 0xC01 JUMP JUMPDEST PUSH2 0xBCB PUSH8 0xA722CC55DF41A9B5 PUSH1 0xC0 SHL PUSH2 0xC01 JUMP JUMPDEST PUSH2 0xBDF PUSH8 0x16F8FE68A698BFF4 PUSH1 0xC0 SHL PUSH2 0xC01 JUMP JUMPDEST PUSH1 0x5 SLOAD DUP2 PUSH2 0xBED SWAP2 SWAP1 PUSH2 0xF83 JUMP JUMPDEST PUSH1 0x8 SLOAD PUSH2 0xBFA SWAP2 SWAP1 PUSH2 0xEE3 JUMP JUMPDEST SWAP2 POP POP JUMPDEST SWAP1 JUMP JUMPDEST POP JUMP JUMPDEST PUSH1 0x0 PUSH20 0xFFFFFFFFFFFFFFFFFFFFFFFFFFFFFFFFFFFFFFFF DUP3 AND SWAP1 POP SWAP2 SWAP1 POP JUMP JUMPDEST PUSH1 0x0 DUP2 SWAP1 POP SWAP2 SWAP1 POP JUMP JUMPDEST PUSH1 0x0 PUSH2 0xC49 PUSH2 0xC44 PUSH2 0xC3F DUP5 PUSH2 0xC04 JUMP JUMPDEST PUSH2 0xC24 JUMP JUMPDEST PUSH2 0xC04 JUMP JUMPDEST SWAP1 POP SWAP2 SWAP1 POP JUMP JUMPDEST PUSH1 0x0 PUSH2 0xC5B DUP3 PUSH2 0xC2E JUMP JUMPDEST SWAP1 POP SWAP2 SWAP1 POP JUMP JUMPDEST PUSH1 0x0 PUSH2 0xC6D DUP3 PUSH2 0xC50 JUMP JUMPDEST SWAP1 POP SWAP2 SWAP1 POP JUMP JUMPDEST PUSH2 0xC7D DUP2 PUSH2 0xC62 JUMP JUMPDEST DUP3 MSTORE POP POP JUMP JUMPDEST PUSH1 0x0 PUSH1 0x20 DUP3 ADD SWAP1 POP PUSH2 0xC98 PUSH1 0x0 DUP4 ADD DUP5 PUSH2 0xC74 JUMP JUMPDEST SWAP3 SWAP2 POP POP JUMP JUMPDEST PUSH1 0x0 DUP2 SWAP1 POP SWAP2 SWAP1 POP JUMP JUMPDEST PUSH2 0xCB1 DUP2 PUSH2 0xC9E JUMP JUMPDEST DUP3 MSTORE POP POP JUMP JUMPDEST PUSH1 0x0 PUSH1 0x20 DUP3 ADD SWAP1 POP PUSH2 0xCCC PUSH1 0x0 DUP4 ADD DUP5 PUSH2 0xCA8 JUMP JUMPDEST SWAP3 SWAP2 POP POP JUMP JUMPDEST PUSH1 0x0 DUP1 REVERT JUMPDEST PUSH1 0x0 PUSH2 0xCE2 DUP3 PUSH2 0xC04 JUMP JUMPDEST SWAP1 POP SWAP2 SWAP1 POP JUMP JUMPDEST PUSH2 0xCF2 DUP2 PUSH2 0xCD7 JUMP JUMPDEST DUP2 EQ PUSH2 0xCFD JUMPI PUSH1 0x0 DUP1 REVERT JUMPDEST POP JUMP JUMPDEST PUSH1 0x0 DUP2 CALLDATALOAD SWAP1 POP PUSH2 0xD0F DUP2 PUSH2 0xCE9 JUMP JUMPDEST SWAP3 SWAP2 POP POP JUMP JUMPDEST PUSH1 0x0 PUSH1 0x20 DUP3 DUP5 SUB SLT ISZERO PUSH2 0xD2B JUMPI PUSH2 0xD2A PUSH2 0xCD2 JUMP JUMPDEST JUMPDEST PUSH1 0x0 PUSH2 0xD39 DUP5 DUP3 DUP6 ADD PUSH2 0xD00 JUMP JUMPDEST SWAP2 POP POP SWAP3 SWAP2 POP POP JUMP JUMPDEST PUSH2 0xD4B DUP2 PUSH2 0xC9E JUMP JUMPDEST DUP2 EQ PUSH2 0xD56 JUMPI PUSH1 0x0 DUP1 REVERT JUMPDEST POP JUMP JUMPDEST PUSH1 0x0 DUP2 CALLDATALOAD SWAP1 POP PUSH2 0xD68 DUP2 PUSH2 0xD42 JUMP JUMPDEST SWAP3 SWAP2 POP POP JUMP JUMPDEST PUSH1 0x0 PUSH1 0x20 DUP3 DUP5 SUB SLT ISZERO PUSH2 0xD84 JUMPI PUSH2 0xD83 PUSH2 0xCD2 JUMP JUMPDEST JUMPDEST PUSH1 0x0 PUSH2 0xD92 DUP5 DUP3 DUP6 ADD PUSH2 0xD59 JUMP JUMPDEST SWAP2 POP POP SWAP3 SWAP2 POP POP JUMP JUMPDEST PUSH2 0xDA4 DUP2 PUSH2 0xCD7 JUMP JUMPDEST DUP3 MSTORE POP POP JUMP JUMPDEST PUSH1 0x0 PUSH1 0x20 DUP3 ADD SWAP1 POP PUSH2 0xDBF PUSH1 0x0 DUP4 ADD DUP5 PUSH2 0xD9B JUMP JUMPDEST SWAP3 SWAP2 POP POP JUMP JUMPDEST PUSH1 0x0 DUP2 ISZERO ISZERO SWAP1 POP SWAP2 SWAP1 POP JUMP JUMPDEST PUSH2 0xDDA DUP2 PUSH2 0xDC5 JUMP JUMPDEST DUP3 MSTORE POP POP JUMP JUMPDEST PUSH1 0x0 PUSH1 0x20 DUP3 ADD SWAP1 POP PUSH2 0xDF5 PUSH1 0x0 DUP4 ADD DUP5 PUSH2 0xDD1 JUMP JUMPDEST SWAP3 SWAP2 POP POP JUMP JUMPDEST PUSH1 0x0 PUSH2 0xE06 DUP3 PUSH2 0xC50 JUMP JUMPDEST SWAP1 POP SWAP2 SWAP1 POP JUMP JUMPDEST PUSH2 0xE16 DUP2 PUSH2 0xDFB JUMP JUMPDEST DUP3 MSTORE POP POP JUMP JUMPDEST PUSH1 0x0 PUSH1 0x20 DUP3 ADD SWAP1 POP PUSH2 0xE31 PUSH1 0x0 DUP4 ADD DUP5 PUSH2 0xE0D JUMP JUMPDEST SWAP3 SWAP2 POP POP JUMP JUMPDEST PUSH1 0x0 DUP3 DUP3 MSTORE PUSH1 0x20 DUP3 ADD SWAP1 POP SWAP3 SWAP2 POP POP JUMP JUMPDEST PUSH32 0x41756374696F6E2068617320616C726561647920656E64656400000000000000 PUSH1 0x0 DUP3 ADD MSTORE POP JUMP JUMPDEST PUSH1 0x0 PUSH2 0xE7E PUSH1 0x19 DUP4 PUSH2 0xE37 JUMP JUMPDEST SWAP2 POP PUSH2 0xE89 DUP3 PUSH2 0xE48 JUMP JUMPDEST PUSH1 0x20 DUP3 ADD SWAP1 POP SWAP2 SWAP1 POP JUMP JUMPDEST PUSH1 0x0 PUSH1 0x20 DUP3 ADD SWAP1 POP DUP2 DUP2 SUB PUSH1 0x0 DUP4 ADD MSTORE PUSH2 0xEAD DUP2 PUSH2 0xE71 JUMP JUMPDEST SWAP1 POP SWAP2 SWAP1 POP JUMP JUMPDEST PUSH32 0x4E487B7100000000000000000000000000000000000000000000000000000000 PUSH1 0x0 MSTORE PUSH1 0x11 PUSH1 0x4 MSTORE PUSH1 0x24 PUSH1 0x0 REVERT JUMPDEST PUSH1 0x0 PUSH2 0xEEE DUP3 PUSH2 0xC9E JUMP JUMPDEST SWAP2 POP PUSH2 0xEF9 DUP4 PUSH2 0xC9E JUMP JUMPDEST SWAP3 POP DUP3 DUP3 SUB SWAP1 POP DUP2 DUP2 GT ISZERO PUSH2 0xF11 JUMPI PUSH2 0xF10 PUSH2 0xEB4 JUMP JUMPDEST JUMPDEST SWAP3 SWAP2 POP POP JUMP JUMPDEST PUSH32 0x41756374696F6E20456E64656400000000000000000000000000000000000000 PUSH1 0x0 DUP3 ADD MSTORE POP JUMP JUMPDEST PUSH1 0x0 PUSH2 0xF4D PUSH1 0xD DUP4 PUSH2 0xE37 JUMP JUMPDEST SWAP2 POP PUSH2 0xF58 DUP3 PUSH2 0xF17 JUMP JUMPDEST PUSH1 0x20 DUP3 ADD SWAP1 POP SWAP2 SWAP1 POP JUMP JUMPDEST PUSH1 0x0 PUSH1 0x20 DUP3 ADD SWAP1 POP DUP2 DUP2 SUB PUSH1 0x0 DUP4 ADD MSTORE PUSH2 0xF7C DUP2 PUSH2 0xF40 JUMP JUMPDEST SWAP1 POP SWAP2 SWAP1 POP JUMP JUMPDEST PUSH1 0x0 PUSH2 0xF8E DUP3 PUSH2 0xC9E JUMP JUMPDEST SWAP2 POP PUSH2 0xF99 DUP4 PUSH2 0xC9E JUMP JUMPDEST SWAP3 POP DUP3 DUP3 MUL PUSH2 0xFA7 DUP2 PUSH2 0xC9E JUMP JUMPDEST SWAP2 POP DUP3 DUP3 DIV DUP5 EQ DUP4 ISZERO OR PUSH2 0xFBE JUMPI PUSH2 0xFBD PUSH2 0xEB4 JUMP JUMPDEST JUMPDEST POP SWAP3 SWAP2 POP POP JUMP JUMPDEST PUSH32 0x5468652062696420616D6F756E742073656E7420697320746F6F206C6F770000 PUSH1 0x0 DUP3 ADD MSTORE POP JUMP JUMPDEST PUSH1 0x0 PUSH2 0xFFB PUSH1 0x1E DUP4 PUSH2 0xE37 JUMP JUMPDEST SWAP2 POP PUSH2 0x1006 DUP3 PUSH2 0xFC5 JUMP JUMPDEST PUSH1 0x20 DUP3 ADD SWAP1 POP SWAP2 SWAP1 POP JUMP JUMPDEST PUSH1 0x0 PUSH1 0x20 DUP3 ADD SWAP1 POP DUP2 DUP2 SUB PUSH1 0x0 DUP4 ADD MSTORE PUSH2 0x102A DUP2 PUSH2 0xFEE JUMP JUMPDEST SWAP1 POP SWAP2 SWAP1 POP JUMP JUMPDEST PUSH1 0x0 PUSH1 0x40 DUP3 ADD SWAP1 POP PUSH2 0x1046 PUSH1 0x0 DUP4 ADD DUP6 PUSH2 0xD9B JUMP JUMPDEST PUSH2 0x1053 PUSH1 0x20 DUP4 ADD DUP5 PUSH2 0xD9B JUMP JUMPDEST SWAP4 SWAP3 POP POP POP JUMP JUMPDEST PUSH1 0x0 DUP2 MLOAD SWAP1 POP PUSH2 0x1069 DUP2 PUSH2 0xD42 JUMP JUMPDEST SWAP3 SWAP2 POP POP JUMP JUMPDEST PUSH1 0x0 PUSH1 0x20 DUP3 DUP5 SUB SLT ISZERO PUSH2 0x1085 JUMPI PUSH2 0x1084 PUSH2 0xCD2 JUMP JUMPDEST JUMPDEST PUSH1 0x0 PUSH2 0x1093 DUP5 DUP3 DUP6 ADD PUSH2 0x105A JUMP JUMPDEST SWAP2 POP POP SWAP3 SWAP2 POP POP JUMP JUMPDEST PUSH32 0x42696420616D6F756E742061636365707465642C206275742062696420666169 PUSH1 0x0 DUP3 ADD MSTORE PUSH32 0x6C65642062656361757365206E6F7420656E6F7567682062616C616E63652074 PUSH1 0x20 DUP3 ADD MSTORE PUSH32 0x6F207472616E7366657220657263323020746F6B656E00000000000000000000 PUSH1 0x40 DUP3 ADD MSTORE POP JUMP JUMPDEST PUSH1 0x0 PUSH2 0x111E PUSH1 0x56 DUP4 PUSH2 0xE37 JUMP JUMPDEST SWAP2 POP PUSH2 0x1129 DUP3 PUSH2 0x109C JUMP JUMPDEST PUSH1 0x60 DUP3 ADD SWAP1 POP SWAP2 SWAP1 POP JUMP JUMPDEST PUSH1 0x0 PUSH1 0x20 DUP3 ADD SWAP1 POP DUP2 DUP2 SUB PUSH1 0x0 DUP4 ADD MSTORE PUSH2 0x114D DUP2 PUSH2 0x1111 JUMP JUMPDEST SWAP1 POP SWAP2 SWAP1 POP JUMP JUMPDEST PUSH1 0x0 PUSH1 0x60 DUP3 ADD SWAP1 POP PUSH2 0x1169 PUSH1 0x0 DUP4 ADD DUP7 PUSH2 0xD9B JUMP JUMPDEST PUSH2 0x1176 PUSH1 0x20 DUP4 ADD DUP6 PUSH2 0xD9B JUMP JUMPDEST PUSH2 0x1183 PUSH1 0x40 DUP4 ADD DUP5 PUSH2 0xCA8 JUMP JUMPDEST SWAP5 SWAP4 POP POP POP POP JUMP JUMPDEST PUSH2 0x1194 DUP2 PUSH2 0xDC5 JUMP JUMPDEST DUP2 EQ PUSH2 0x119F JUMPI PUSH1 0x0 DUP1 REVERT JUMPDEST POP JUMP JUMPDEST PUSH1 0x0 DUP2 MLOAD SWAP1 POP PUSH2 0x11B1 DUP2 PUSH2 0x118B JUMP JUMPDEST SWAP3 SWAP2 POP POP JUMP JUMPDEST PUSH1 0x0 PUSH1 0x20 DUP3 DUP5 SUB SLT ISZERO PUSH2 0x11CD JUMPI PUSH2 0x11CC PUSH2 0xCD2 JUMP JUMPDEST JUMPDEST PUSH1 0x0 PUSH2 0x11DB DUP5 DUP3 DUP6 ADD PUSH2 0x11A2 JUMP JUMPDEST SWAP2 POP POP SWAP3 SWAP2 POP POP JUMP INVALID LOG2 PUSH5 0x6970667358 0x22 SLT KECCAK256 0xD3 PUSH1 0x6B PUSH22 0x2DE0D504B41E0323F44F94268DF881C09D193D801307 BASEFEE 0x49 CALLDATACOPY DUP13 PUSH13 0x3B64736F6C6343000811003300 "},"methodIdentifiers":{"auctionEnded()":"86433374","bid(uint256)":"454a2ab3","bidderTokens(address)":"30a01258","bidders(uint256)":"cff29dfd","endsAtBlockNumber()":"a7b7dcfd","erc20TokenReference()":"eb0d1e92","finalPrice()":"a6b513ee","getCurrentPrice()":"eb91d37e","initialPrice()":"1d0806ae","nftTokenId()":"7e830574","nfterc721Reference()":"0c298750","numBlocksAuctionOpen()":"3103ea62","offerPriceDecrement()":"d3642a88","owner()":"8da5cb5b","reservePrice()":"db2e1eed","startAtBlockNumber()":"56eeb3b0","totalBidTokens()":"4362237e"}}}}}