{
  "_format": "hh-sol-artifact-1",
  "contractName": "NFTDutchAuction_ERC20Bids",
  "sourceName": "contracts/NFTDutchAuction_ERC20Bids.sol",
  "abi": [
    {
      "inputs": [
        {
          "internalType": "address",
          "name": "erc20TokenAddress",
          "type": "address"
        },
        {
          "internalType": "address",
          "name": "erc721TokenAddress",
          "type": "address"
        },
        {
          "internalType": "uint256",
          "name": "_nftTokenId",
          "type": "uint256"
        },
        {
          "internalType": "uint256",
          "name": "_reservePrice",
          "type": "uint256"
        },
        {
          "internalType": "uint256",
          "name": "_numBlocksAuctionOpen",
          "type": "uint256"
        },
        {
          "internalType": "uint256",
          "name": "_offerPriceDecrement",
          "type": "uint256"
        }
      ],
      "stateMutability": "nonpayable",
      "type": "constructor"
    },
    {
      "inputs": [],
      "name": "auctionEnded",
      "outputs": [
        {
          "internalType": "bool",
          "name": "",
          "type": "bool"
        }
      ],
      "stateMutability": "view",
      "type": "function"
    },
    {
      "inputs": [
        {
          "internalType": "uint256",
          "name": "bidAmount",
          "type": "uint256"
        }
      ],
      "name": "bid",
      "outputs": [
        {
          "internalType": "address",
          "name": "",
          "type": "address"
        }
      ],
      "stateMutability": "nonpayable",
      "type": "function"
    },
    {
      "inputs": [
        {
          "internalType": "address",
          "name": "",
          "type": "address"
        }
      ],
      "name": "bidderTokens",
      "outputs": [
        {
          "internalType": "uint256",
          "name": "",
          "type": "uint256"
        }
      ],
      "stateMutability": "view",
      "type": "function"
    },
    {
      "inputs": [
        {
          "internalType": "uint256",
          "name": "",
          "type": "uint256"
        }
      ],
      "name": "bidders",
      "outputs": [
        {
          "internalType": "address",
          "name": "",
          "type": "address"
        }
      ],
      "stateMutability": "view",
      "type": "function"
    },
    {
      "inputs": [],
      "name": "endsAtBlockNumber",
      "outputs": [
        {
          "internalType": "uint256",
          "name": "",
          "type": "uint256"
        }
      ],
      "stateMutability": "view",
      "type": "function"
    },
    {
      "inputs": [],
      "name": "erc20TokenReference",
      "outputs": [
        {
          "internalType": "contract IERC20",
          "name": "",
          "type": "address"
        }
      ],
      "stateMutability": "view",
      "type": "function"
    },
    {
      "inputs": [],
      "name": "finalPrice",
      "outputs": [
        {
          "internalType": "uint256",
          "name": "",
          "type": "uint256"
        }
      ],
      "stateMutability": "view",
      "type": "function"
    },
    {
      "inputs": [],
      "name": "getCurrentPrice",
      "outputs": [
        {
          "internalType": "uint256",
          "name": "",
          "type": "uint256"
        }
      ],
      "stateMutability": "view",
      "type": "function"
    },
    {
      "inputs": [],
      "name": "initialPrice",
      "outputs": [
        {
          "internalType": "uint256",
          "name": "",
          "type": "uint256"
        }
      ],
      "stateMutability": "view",
      "type": "function"
    },
    {
      "inputs": [],
      "name": "nftTokenId",
      "outputs": [
        {
          "internalType": "uint256",
          "name": "",
          "type": "uint256"
        }
      ],
      "stateMutability": "view",
      "type": "function"
    },
    {
      "inputs": [],
      "name": "nfterc721Reference",
      "outputs": [
        {
          "internalType": "contract IERC721",
          "name": "",
          "type": "address"
        }
      ],
      "stateMutability": "view",
      "type": "function"
    },
    {
      "inputs": [],
      "name": "numBlocksAuctionOpen",
      "outputs": [
        {
          "internalType": "uint256",
          "name": "",
          "type": "uint256"
        }
      ],
      "stateMutability": "view",
      "type": "function"
    },
    {
      "inputs": [],
      "name": "offerPriceDecrement",
      "outputs": [
        {
          "internalType": "uint256",
          "name": "",
          "type": "uint256"
        }
      ],
      "stateMutability": "view",
      "type": "function"
    },
    {
      "inputs": [],
      "name": "owner",
      "outputs": [
        {
          "internalType": "address",
          "name": "",
          "type": "address"
        }
      ],
      "stateMutability": "view",
      "type": "function"
    },
    {
      "inputs": [],
      "name": "reservePrice",
      "outputs": [
        {
          "internalType": "uint256",
          "name": "",
          "type": "uint256"
        }
      ],
      "stateMutability": "view",
      "type": "function"
    },
    {
      "inputs": [],
      "name": "startAtBlockNumber",
      "outputs": [
        {
          "internalType": "uint256",
          "name": "",
          "type": "uint256"
        }
      ],
      "stateMutability": "view",
      "type": "function"
    },
    {
      "inputs": [],
      "name": "totalBidTokens",
      "outputs": [
        {
          "internalType": "uint256",
          "name": "",
          "type": "uint256"
        }
      ],
      "stateMutability": "view",
      "type": "function"
    }
  ],
  "bytecode": "0x60a06040523480156200001157600080fd5b50604051620017523803806200175283398181016040528101906200003791906200037b565b6200005367da03256a17c55b6d60c01b620002d360201b60201c565b6200006f679ee6bd34406412d060c01b620002d360201b60201c565b3373ffffffffffffffffffffffffffffffffffffffff1660808173ffffffffffffffffffffffffffffffffffffffff1681525050620000bf67107686b95d30f37e60c01b620002d360201b60201c565b846000806101000a81548173ffffffffffffffffffffffffffffffffffffffff021916908373ffffffffffffffffffffffffffffffffffffffff1602179055506200011b67c17194936323514c60c01b620002d360201b60201c565b85600160006101000a81548173ffffffffffffffffffffffffffffffffffffffff021916908373ffffffffffffffffffffffffffffffffffffffff1602179055506200017867fbb63676cb2aad3f60c01b620002d360201b60201c565b836002819055506200019b67d0f377b42217428e60c01b620002d360201b60201c565b82600381905550620001be674d0b937b26ab4baf60c01b620002d360201b60201c565b81600481905550620001e167fe3845b2c9f1bdec60c01b620002d360201b60201c565b806005819055506200020467b09d360c4183f1ea60c01b620002d360201b60201c565b43600681905550620002276758b2b567089f8e1e60c01b620002d360201b60201c565b60045460065462000239919062000446565b6007819055506200025b67d5d8a44524798ed660c01b620002d360201b60201c565b60016005546004546200026f919062000481565b6200027b9190620004cc565b6003546200028a919062000446565b600881905550620002ac67a081641acfd7beea60c01b620002d360201b60201c565b6000600d60006101000a81548160ff02191690831515021790555050505050505062000507565b50565b600080fd5b600073ffffffffffffffffffffffffffffffffffffffff82169050919050565b60006200030882620002db565b9050919050565b6200031a81620002fb565b81146200032657600080fd5b50565b6000815190506200033a816200030f565b92915050565b6000819050919050565b620003558162000340565b81146200036157600080fd5b50565b60008151905062000375816200034a565b92915050565b60008060008060008060c087890312156200039b576200039a620002d6565b5b6000620003ab89828a0162000329565b9650506020620003be89828a0162000329565b9550506040620003d189828a0162000364565b9450506060620003e489828a0162000364565b9350506080620003f789828a0162000364565b92505060a06200040a89828a0162000364565b9150509295509295509295565b7f4e487b7100000000000000000000000000000000000000000000000000000000600052601160045260246000fd5b6000620004538262000340565b9150620004608362000340565b92508282019050808211156200047b576200047a62000417565b5b92915050565b60006200048e8262000340565b91506200049b8362000340565b9250828202620004ab8162000340565b91508282048414831517620004c557620004c462000417565b5b5092915050565b6000620004d98262000340565b9150620004e68362000340565b925082820390508181111562000501576200050062000417565b5b92915050565b60805161121a62000538600039600081816107220152818161085c015281816109380152610a3c015261121a6000f3fe608060405234801561001057600080fd5b506004361061010b5760003560e01c806386433374116100a2578063cff29dfd11610071578063cff29dfd1461029c578063d3642a88146102cc578063db2e1eed146102ea578063eb0d1e9214610308578063eb91d37e146103265761010b565b806386433374146102245780638da5cb5b14610242578063a6b513ee14610260578063a7b7dcfd1461027e5761010b565b80634362237e116100de5780634362237e1461019a578063454a2ab3146101b857806356eeb3b0146101e85780637e830574146102065761010b565b80630c298750146101105780631d0806ae1461012e57806330a012581461014c5780633103ea621461017c575b600080fd5b610118610344565b6040516101259190610c83565b60405180910390f35b610136610368565b6040516101439190610cb7565b60405180910390f35b61016660048036038101906101619190610d15565b61036e565b6040516101739190610cb7565b60405180910390f35b610184610386565b6040516101919190610cb7565b60405180910390f35b6101a261038c565b6040516101af9190610cb7565b60405180910390f35b6101d260048036038101906101cd9190610d6e565b610392565b6040516101df9190610daa565b60405180910390f35b6101f0610a1b565b6040516101fd9190610cb7565b60405180910390f35b61020e610a21565b60405161021b9190610cb7565b60405180910390f35b61022c610a27565b6040516102399190610de0565b60405180910390f35b61024a610a3a565b6040516102579190610daa565b60405180910390f35b610268610a5e565b6040516102759190610cb7565b60405180910390f35b610286610a64565b6040516102939190610cb7565b60405180910390f35b6102b660048036038101906102b19190610d6e565b610a6a565b6040516102c39190610daa565b60405180910390f35b6102d4610aa9565b6040516102e19190610cb7565b60405180910390f35b6102f2610aaf565b6040516102ff9190610cb7565b60405180910390f35b610310610ab5565b60405161031d9190610e1c565b60405180910390f35b61032e610adb565b60405161033b9190610cb7565b60405180910390f35b60008054906101000a900473ffffffffffffffffffffffffffffffffffffffff1681565b60085481565b600a6020528060005260406000206000915090505481565b60045481565b600c5481565b60006103a867c002c20c7fd0ce5660c01b610c01565b6103bc677053bb813eda9b1f60c01b610c01565b6103d0677d9cbe92fa0311b760c01b610c01565b6103e467a0bb5d7ac43027ac60c01b610c01565b600d60009054906101000a900460ff1615610434576040517f08c379a000000000000000000000000000000000000000000000000000000000815260040161042b90610e94565b60405180910390fd5b610448677c6b89478fd44a0760c01b610c01565b61045c6762a8a0f61b5b4e4060c01b610c01565b610470671514b4cad5d8c41460c01b610c01565b600454600654436104819190610ee3565b11156104cf5761049b678c9d54ae8f236a3860c01b610c01565b6104af6755daa1cfe233131b60c01b610c01565b6001600d60006101000a81548160ff0219169083151502179055506104e4565b6104e36779fa6687d55ecb5d60c01b610c01565b5b6104f867ea081123eaf1eff460c01b610c01565b61050c6741ff416f83fa19d660c01b610c01565b61052067c594060d48c1382060c01b610c01565b600454600654436105319190610ee3565b1115610572576040517f08c379a000000000000000000000000000000000000000000000000000000000815260040161056990610f63565b60405180910390fd5b61058667fd601d332163571360c01b610c01565b61059a67ccba04056e94d53460c01b610c01565b6105ae6713054102171fb77860c01b610c01565b6000600654436105be9190610ee3565b90506105d467326a233c053b83a560c01b610c01565b6105e867aa97077f8b5fbc8260c01b610c01565b60006001600554836105fa9190610f83565b6106049190610ee3565b6008546106119190610ee3565b90506106276769d3ccff7c5410b460c01b610c01565b61063b6715d787690e3ad52660c01b610c01565b61064f67343ed7c3c1255f2a60c01b610c01565b80841015610692576040517f08c379a000000000000000000000000000000000000000000000000000000000815260040161068990611011565b60405180910390fd5b6106a6676527bd3217c2ca9560c01b610c01565b6106ba6799febbc6bfb744c660c01b610c01565b6106ce67d2e23b437e445a3160c01b610c01565b6106e26748ef2d4d268cbd6660c01b610c01565b600160009054906101000a900473ffffffffffffffffffffffffffffffffffffffff1673ffffffffffffffffffffffffffffffffffffffff1663dd62ed3e7f0000000000000000000000000000000000000000000000000000000000000000336040518363ffffffff1660e01b815260040161075f929190611031565b602060405180830381865afa15801561077c573d6000803e3d6000fd5b505050506040513d601f19601f820116820180604052508101906107a0919061106f565b8411156107e2576040517f08c379a00000000000000000000000000000000000000000000000000000000081526004016107d990611134565b60405180910390fd5b6107f667ac435a0f06eef09f60c01b610c01565b61080a67112a1ebec4a2f76560c01b610c01565b61081e67643a90630a45f4d960c01b610c01565b60008054906101000a900473ffffffffffffffffffffffffffffffffffffffff1673ffffffffffffffffffffffffffffffffffffffff166323b872dd7f0000000000000000000000000000000000000000000000000000000000000000336002546040518463ffffffff1660e01b815260040161089d93929190611154565b600060405180830381600087803b1580156108b757600080fd5b505af11580156108cb573d6000803e3d6000fd5b505050506108e36707989a08c1f5a14160c01b610c01565b6108f767569586b40661fd7960c01b610c01565b600160009054906101000a900473ffffffffffffffffffffffffffffffffffffffff1673ffffffffffffffffffffffffffffffffffffffff166323b872dd337f0000000000000000000000000000000000000000000000000000000000000000876040518463ffffffff1660e01b815260040161097693929190611154565b6020604051808303816000875af1158015610995573d6000803e3d6000fd5b505050506040513d601f19601f820116820180604052508101906109b991906111b7565b506109ce6735672cfa5bc786e160c01b610c01565b6001600d60006101000a81548160ff0219169083151502179055506109fd67bd173824548edb7660c01b610c01565b610a1167180ba294007adc9860c01b610c01565b3392505050919050565b60065481565b60025481565b600d60009054906101000a900460ff1681565b7f000000000000000000000000000000000000000000000000000000000000000081565b60095481565b60075481565b600b8181548110610a7a57600080fd5b906000526020600020016000915054906101000a900473ffffffffffffffffffffffffffffffffffffffff1681565b60055481565b60035481565b600160009054906101000a900473ffffffffffffffffffffffffffffffffffffffff1681565b6000610af1670e755c8b4b67917060c01b610c01565b610b05674f19d10a7c05daf460c01b610c01565b610b196751a1a548d119e85060c01b610c01565b600060065443610b299190610ee3565b9050610b3f670453bcc4be75630f60c01b610c01565b610b536763fb1d3023d0823060c01b610c01565b6004548110610ba357610b7067b0d882a15b50d40360c01b610c01565b610b84673aa606411512c0b660c01b610c01565b610b9867f29f72d52675fe7060c01b610c01565b600354915050610bfe565b610bb767c6e987e0787a157a60c01b610c01565b610bcb67a722cc55df41a9b560c01b610c01565b610bdf6716f8fe68a698bff460c01b610c01565b60055481610bed9190610f83565b600854610bfa9190610ee3565b9150505b90565b50565b600073ffffffffffffffffffffffffffffffffffffffff82169050919050565b6000819050919050565b6000610c49610c44610c3f84610c04565b610c24565b610c04565b9050919050565b6000610c5b82610c2e565b9050919050565b6000610c6d82610c50565b9050919050565b610c7d81610c62565b82525050565b6000602082019050610c986000830184610c74565b92915050565b6000819050919050565b610cb181610c9e565b82525050565b6000602082019050610ccc6000830184610ca8565b92915050565b600080fd5b6000610ce282610c04565b9050919050565b610cf281610cd7565b8114610cfd57600080fd5b50565b600081359050610d0f81610ce9565b92915050565b600060208284031215610d2b57610d2a610cd2565b5b6000610d3984828501610d00565b91505092915050565b610d4b81610c9e565b8114610d5657600080fd5b50565b600081359050610d6881610d42565b92915050565b600060208284031215610d8457610d83610cd2565b5b6000610d9284828501610d59565b91505092915050565b610da481610cd7565b82525050565b6000602082019050610dbf6000830184610d9b565b92915050565b60008115159050919050565b610dda81610dc5565b82525050565b6000602082019050610df56000830184610dd1565b92915050565b6000610e0682610c50565b9050919050565b610e1681610dfb565b82525050565b6000602082019050610e316000830184610e0d565b92915050565b600082825260208201905092915050565b7f41756374696f6e2068617320616c726561647920656e64656400000000000000600082015250565b6000610e7e601983610e37565b9150610e8982610e48565b602082019050919050565b60006020820190508181036000830152610ead81610e71565b9050919050565b7f4e487b7100000000000000000000000000000000000000000000000000000000600052601160045260246000fd5b6000610eee82610c9e565b9150610ef983610c9e565b9250828203905081811115610f1157610f10610eb4565b5b92915050565b7f41756374696f6e20456e64656400000000000000000000000000000000000000600082015250565b6000610f4d600d83610e37565b9150610f5882610f17565b602082019050919050565b60006020820190508181036000830152610f7c81610f40565b9050919050565b6000610f8e82610c9e565b9150610f9983610c9e565b9250828202610fa781610c9e565b91508282048414831517610fbe57610fbd610eb4565b5b5092915050565b7f5468652062696420616d6f756e742073656e7420697320746f6f206c6f770000600082015250565b6000610ffb601e83610e37565b915061100682610fc5565b602082019050919050565b6000602082019050818103600083015261102a81610fee565b9050919050565b60006040820190506110466000830185610d9b565b6110536020830184610d9b565b9392505050565b60008151905061106981610d42565b92915050565b60006020828403121561108557611084610cd2565b5b60006110938482850161105a565b91505092915050565b7f42696420616d6f756e742061636365707465642c20627574206269642066616960008201527f6c65642062656361757365206e6f7420656e6f7567682062616c616e6365207460208201527f6f207472616e7366657220657263323020746f6b656e00000000000000000000604082015250565b600061111e605683610e37565b91506111298261109c565b606082019050919050565b6000602082019050818103600083015261114d81611111565b9050919050565b60006060820190506111696000830186610d9b565b6111766020830185610d9b565b6111836040830184610ca8565b949350505050565b61119481610dc5565b811461119f57600080fd5b50565b6000815190506111b18161118b565b92915050565b6000602082840312156111cd576111cc610cd2565b5b60006111db848285016111a2565b9150509291505056fea2646970667358221220d3606b752de0d504b41e0323f44f94268df881c09d193d8013074849378c6c3b64736f6c63430008110033",
  "linkReferences": {},
  "deployedLinkReferences": {}
}