{
  "_format": "hh-sol-artifact-1",
  "contractName": "NFTDutchAuction_ERC20Bids",
  "sourceName": "contracts/NFTDutchAuction_ERC20Bids.sol",
  "abi": [
    {
      "inputs": [
        {
          "internalType": "address",
          "name": "erc20TokenAddress",
          "type": "address"
        },
        {
          "internalType": "address",
          "name": "erc721TokenAddress",
          "type": "address"
        },
        {
          "internalType": "uint256",
          "name": "_nftTokenId",
          "type": "uint256"
        },
        {
          "internalType": "uint256",
          "name": "_reservePrice",
          "type": "uint256"
        },
        {
          "internalType": "uint256",
          "name": "_numBlocksAuctionOpen",
          "type": "uint256"
        },
        {
          "internalType": "uint256",
          "name": "_offerPriceDecrement",
          "type": "uint256"
        }
      ],
      "stateMutability": "nonpayable",
      "type": "constructor"
    },
    {
      "inputs": [],
      "name": "auctionEnded",
      "outputs": [
        {
          "internalType": "bool",
          "name": "",
          "type": "bool"
        }
      ],
      "stateMutability": "view",
      "type": "function"
    },
    {
      "inputs": [
        {
          "internalType": "uint256",
          "name": "bidAmount",
          "type": "uint256"
        }
      ],
      "name": "bid",
      "outputs": [
        {
          "internalType": "address",
          "name": "",
          "type": "address"
        }
      ],
      "stateMutability": "nonpayable",
      "type": "function"
    },
    {
      "inputs": [
        {
          "internalType": "address",
          "name": "",
          "type": "address"
        }
      ],
      "name": "bidderTokens",
      "outputs": [
        {
          "internalType": "uint256",
          "name": "",
          "type": "uint256"
        }
      ],
      "stateMutability": "view",
      "type": "function"
    },
    {
      "inputs": [
        {
          "internalType": "uint256",
          "name": "",
          "type": "uint256"
        }
      ],
      "name": "bidders",
      "outputs": [
        {
          "internalType": "address",
          "name": "",
          "type": "address"
        }
      ],
      "stateMutability": "view",
      "type": "function"
    },
    {
      "inputs": [],
      "name": "endsAtBlockNumber",
      "outputs": [
        {
          "internalType": "uint256",
          "name": "",
          "type": "uint256"
        }
      ],
      "stateMutability": "view",
      "type": "function"
    },
    {
      "inputs": [],
      "name": "erc20TokenReference",
      "outputs": [
        {
          "internalType": "contract IERC20",
          "name": "",
          "type": "address"
        }
      ],
      "stateMutability": "view",
      "type": "function"
    },
    {
      "inputs": [],
      "name": "finalPrice",
      "outputs": [
        {
          "internalType": "uint256",
          "name": "",
          "type": "uint256"
        }
      ],
      "stateMutability": "view",
      "type": "function"
    },
    {
      "inputs": [],
      "name": "getCurrentPrice",
      "outputs": [
        {
          "internalType": "uint256",
          "name": "",
          "type": "uint256"
        }
      ],
      "stateMutability": "view",
      "type": "function"
    },
    {
      "inputs": [],
      "name": "initialPrice",
      "outputs": [
        {
          "internalType": "uint256",
          "name": "",
          "type": "uint256"
        }
      ],
      "stateMutability": "view",
      "type": "function"
    },
    {
      "inputs": [],
      "name": "nftTokenId",
      "outputs": [
        {
          "internalType": "uint256",
          "name": "",
          "type": "uint256"
        }
      ],
      "stateMutability": "view",
      "type": "function"
    },
    {
      "inputs": [],
      "name": "nfterc721Reference",
      "outputs": [
        {
          "internalType": "contract IERC721",
          "name": "",
          "type": "address"
        }
      ],
      "stateMutability": "view",
      "type": "function"
    },
    {
      "inputs": [],
      "name": "numBlocksAuctionOpen",
      "outputs": [
        {
          "internalType": "uint256",
          "name": "",
          "type": "uint256"
        }
      ],
      "stateMutability": "view",
      "type": "function"
    },
    {
      "inputs": [],
      "name": "offerPriceDecrement",
      "outputs": [
        {
          "internalType": "uint256",
          "name": "",
          "type": "uint256"
        }
      ],
      "stateMutability": "view",
      "type": "function"
    },
    {
      "inputs": [],
      "name": "owner",
      "outputs": [
        {
          "internalType": "address",
          "name": "",
          "type": "address"
        }
      ],
      "stateMutability": "view",
      "type": "function"
    },
    {
      "inputs": [],
      "name": "reservePrice",
      "outputs": [
        {
          "internalType": "uint256",
          "name": "",
          "type": "uint256"
        }
      ],
      "stateMutability": "view",
      "type": "function"
    },
    {
      "inputs": [],
      "name": "startAtBlockNumber",
      "outputs": [
        {
          "internalType": "uint256",
          "name": "",
          "type": "uint256"
        }
      ],
      "stateMutability": "view",
      "type": "function"
    },
    {
      "inputs": [],
      "name": "totalBidTokens",
      "outputs": [
        {
          "internalType": "uint256",
          "name": "",
          "type": "uint256"
        }
      ],
      "stateMutability": "view",
      "type": "function"
    }
  ],
  "bytecode": "0x60a06040523480156200001157600080fd5b50604051620017523803806200175283398181016040528101906200003791906200037b565b620000536745ec45f71c56a5a060c01b620002d360201b60201c565b6200006f67982a379a4a7edb8f60c01b620002d360201b60201c565b3373ffffffffffffffffffffffffffffffffffffffff1660808173ffffffffffffffffffffffffffffffffffffffff1681525050620000bf67949755311e585ec460c01b620002d360201b60201c565b846000806101000a81548173ffffffffffffffffffffffffffffffffffffffff021916908373ffffffffffffffffffffffffffffffffffffffff1602179055506200011b67192b0f390c11f6bc60c01b620002d360201b60201c565b85600160006101000a81548173ffffffffffffffffffffffffffffffffffffffff021916908373ffffffffffffffffffffffffffffffffffffffff16021790555062000178673858595cb8d38bda60c01b620002d360201b60201c565b836002819055506200019b675527f69c353f67ff60c01b620002d360201b60201c565b82600381905550620001be67ba53ae75e286ef1960c01b620002d360201b60201c565b81600481905550620001e16798095e9bfd41947c60c01b620002d360201b60201c565b8060058190555062000204676bc1cf9cf5846f1d60c01b620002d360201b60201c565b4360068190555062000227676ffb467c6ef8bfaf60c01b620002d360201b60201c565b60045460065462000239919062000446565b6007819055506200025b67a675e4d33ceb875560c01b620002d360201b60201c565b60016005546004546200026f919062000481565b6200027b9190620004cc565b6003546200028a919062000446565b600881905550620002ac670ec552cc4d0296a560c01b620002d360201b60201c565b6000600d60006101000a81548160ff02191690831515021790555050505050505062000507565b50565b600080fd5b600073ffffffffffffffffffffffffffffffffffffffff82169050919050565b60006200030882620002db565b9050919050565b6200031a81620002fb565b81146200032657600080fd5b50565b6000815190506200033a816200030f565b92915050565b6000819050919050565b620003558162000340565b81146200036157600080fd5b50565b60008151905062000375816200034a565b92915050565b60008060008060008060c087890312156200039b576200039a620002d6565b5b6000620003ab89828a0162000329565b9650506020620003be89828a0162000329565b9550506040620003d189828a0162000364565b9450506060620003e489828a0162000364565b9350506080620003f789828a0162000364565b92505060a06200040a89828a0162000364565b9150509295509295509295565b7f4e487b7100000000000000000000000000000000000000000000000000000000600052601160045260246000fd5b6000620004538262000340565b9150620004608362000340565b92508282019050808211156200047b576200047a62000417565b5b92915050565b60006200048e8262000340565b91506200049b8362000340565b9250828202620004ab8162000340565b91508282048414831517620004c557620004c462000417565b5b5092915050565b6000620004d98262000340565b9150620004e68362000340565b925082820390508181111562000501576200050062000417565b5b92915050565b60805161121a62000538600039600081816107220152818161085c015281816109380152610a3c015261121a6000f3fe608060405234801561001057600080fd5b506004361061010b5760003560e01c806386433374116100a2578063cff29dfd11610071578063cff29dfd1461029c578063d3642a88146102cc578063db2e1eed146102ea578063eb0d1e9214610308578063eb91d37e146103265761010b565b806386433374146102245780638da5cb5b14610242578063a6b513ee14610260578063a7b7dcfd1461027e5761010b565b80634362237e116100de5780634362237e1461019a578063454a2ab3146101b857806356eeb3b0146101e85780637e830574146102065761010b565b80630c298750146101105780631d0806ae1461012e57806330a012581461014c5780633103ea621461017c575b600080fd5b610118610344565b6040516101259190610c83565b60405180910390f35b610136610368565b6040516101439190610cb7565b60405180910390f35b61016660048036038101906101619190610d15565b61036e565b6040516101739190610cb7565b60405180910390f35b610184610386565b6040516101919190610cb7565b60405180910390f35b6101a261038c565b6040516101af9190610cb7565b60405180910390f35b6101d260048036038101906101cd9190610d6e565b610392565b6040516101df9190610daa565b60405180910390f35b6101f0610a1b565b6040516101fd9190610cb7565b60405180910390f35b61020e610a21565b60405161021b9190610cb7565b60405180910390f35b61022c610a27565b6040516102399190610de0565b60405180910390f35b61024a610a3a565b6040516102579190610daa565b60405180910390f35b610268610a5e565b6040516102759190610cb7565b60405180910390f35b610286610a64565b6040516102939190610cb7565b60405180910390f35b6102b660048036038101906102b19190610d6e565b610a6a565b6040516102c39190610daa565b60405180910390f35b6102d4610aa9565b6040516102e19190610cb7565b60405180910390f35b6102f2610aaf565b6040516102ff9190610cb7565b60405180910390f35b610310610ab5565b60405161031d9190610e1c565b60405180910390f35b61032e610adb565b60405161033b9190610cb7565b60405180910390f35b60008054906101000a900473ffffffffffffffffffffffffffffffffffffffff1681565b60085481565b600a6020528060005260406000206000915090505481565b60045481565b600c5481565b60006103a8677370f68ab4c9991860c01b610c01565b6103bc672d7b1787af261d2d60c01b610c01565b6103d067bea657f6648a8ca960c01b610c01565b6103e467b49c3810e6e519a260c01b610c01565b600d60009054906101000a900460ff1615610434576040517f08c379a000000000000000000000000000000000000000000000000000000000815260040161042b90610e94565b60405180910390fd5b610448676c3759d473d1b4bc60c01b610c01565b61045c6767789ccb4dd6172460c01b610c01565b61047067b8ec2605ee3b493660c01b610c01565b600454600654436104819190610ee3565b11156104cf5761049b67ab3634907a42f0eb60c01b610c01565b6104af67ed3da8522b9dc59060c01b610c01565b6001600d60006101000a81548160ff0219169083151502179055506104e4565b6104e36725dcf70d2339222060c01b610c01565b5b6104f8678d6de4b7427e66f560c01b610c01565b61050c679b714da6d85a7d1c60c01b610c01565b61052067b02bcb43ddd5002e60c01b610c01565b600454600654436105319190610ee3565b1115610572576040517f08c379a000000000000000000000000000000000000000000000000000000000815260040161056990610f63565b60405180910390fd5b61058667c5f1786b8baef2cc60c01b610c01565b61059a671c7c9c7da4ad8d2260c01b610c01565b6105ae6708c50d5a4beec31560c01b610c01565b6000600654436105be9190610ee3565b90506105d467bb9204b55c082c0260c01b610c01565b6105e8677f0644410f6a63c460c01b610c01565b60006001600554836105fa9190610f83565b6106049190610ee3565b6008546106119190610ee3565b905061062767e9aaf5ba1e0ba89160c01b610c01565b61063b67b25e4e85ccd72d9e60c01b610c01565b61064f6774098677f128b0d160c01b610c01565b80841015610692576040517f08c379a000000000000000000000000000000000000000000000000000000000815260040161068990611011565b60405180910390fd5b6106a667bd094fa7a2cc4fdd60c01b610c01565b6106ba672746e78c3549fb6460c01b610c01565b6106ce67e24abe302a9ef50460c01b610c01565b6106e267caaff9324119ed8c60c01b610c01565b600160009054906101000a900473ffffffffffffffffffffffffffffffffffffffff1673ffffffffffffffffffffffffffffffffffffffff1663dd62ed3e7f0000000000000000000000000000000000000000000000000000000000000000336040518363ffffffff1660e01b815260040161075f929190611031565b602060405180830381865afa15801561077c573d6000803e3d6000fd5b505050506040513d601f19601f820116820180604052508101906107a0919061106f565b8411156107e2576040517f08c379a00000000000000000000000000000000000000000000000000000000081526004016107d990611134565b60405180910390fd5b6107f6675a0c285e6a52206a60c01b610c01565b61080a67ce44b6d1b22cea2f60c01b610c01565b61081e67bad65c5d852effc460c01b610c01565b60008054906101000a900473ffffffffffffffffffffffffffffffffffffffff1673ffffffffffffffffffffffffffffffffffffffff166323b872dd7f0000000000000000000000000000000000000000000000000000000000000000336002546040518463ffffffff1660e01b815260040161089d93929190611154565b600060405180830381600087803b1580156108b757600080fd5b505af11580156108cb573d6000803e3d6000fd5b505050506108e36766d875b61120de9860c01b610c01565b6108f7675831f8f613f73f2360c01b610c01565b600160009054906101000a900473ffffffffffffffffffffffffffffffffffffffff1673ffffffffffffffffffffffffffffffffffffffff166323b872dd337f0000000000000000000000000000000000000000000000000000000000000000876040518463ffffffff1660e01b815260040161097693929190611154565b6020604051808303816000875af1158015610995573d6000803e3d6000fd5b505050506040513d601f19601f820116820180604052508101906109b991906111b7565b506109ce6736916d49bef128df60c01b610c01565b6001600d60006101000a81548160ff0219169083151502179055506109fd67a95ac08b2b811d1760c01b610c01565b610a1167cf90a991447e324960c01b610c01565b3392505050919050565b60065481565b60025481565b600d60009054906101000a900460ff1681565b7f000000000000000000000000000000000000000000000000000000000000000081565b60095481565b60075481565b600b8181548110610a7a57600080fd5b906000526020600020016000915054906101000a900473ffffffffffffffffffffffffffffffffffffffff1681565b60055481565b60035481565b600160009054906101000a900473ffffffffffffffffffffffffffffffffffffffff1681565b6000610af167bd6c0e539525d9cb60c01b610c01565b610b05671f5f1896b0dd685060c01b610c01565b610b19670a18d528d3dd73d460c01b610c01565b600060065443610b299190610ee3565b9050610b3f67bb00c732704fdc9460c01b610c01565b610b53677819cf996765f1f160c01b610c01565b6004548110610ba357610b7067527acf638b616fb860c01b610c01565b610b846745a0aa16b25c1b6d60c01b610c01565b610b9867cdbca4bd4f2897a760c01b610c01565b600354915050610bfe565b610bb767b12e86fcd8b6c70460c01b610c01565b610bcb6701c241dff2bb1b7160c01b610c01565b610bdf6791424b3835e6898060c01b610c01565b60055481610bed9190610f83565b600854610bfa9190610ee3565b9150505b90565b50565b600073ffffffffffffffffffffffffffffffffffffffff82169050919050565b6000819050919050565b6000610c49610c44610c3f84610c04565b610c24565b610c04565b9050919050565b6000610c5b82610c2e565b9050919050565b6000610c6d82610c50565b9050919050565b610c7d81610c62565b82525050565b6000602082019050610c986000830184610c74565b92915050565b6000819050919050565b610cb181610c9e565b82525050565b6000602082019050610ccc6000830184610ca8565b92915050565b600080fd5b6000610ce282610c04565b9050919050565b610cf281610cd7565b8114610cfd57600080fd5b50565b600081359050610d0f81610ce9565b92915050565b600060208284031215610d2b57610d2a610cd2565b5b6000610d3984828501610d00565b91505092915050565b610d4b81610c9e565b8114610d5657600080fd5b50565b600081359050610d6881610d42565b92915050565b600060208284031215610d8457610d83610cd2565b5b6000610d9284828501610d59565b91505092915050565b610da481610cd7565b82525050565b6000602082019050610dbf6000830184610d9b565b92915050565b60008115159050919050565b610dda81610dc5565b82525050565b6000602082019050610df56000830184610dd1565b92915050565b6000610e0682610c50565b9050919050565b610e1681610dfb565b82525050565b6000602082019050610e316000830184610e0d565b92915050565b600082825260208201905092915050565b7f41756374696f6e2068617320616c726561647920656e64656400000000000000600082015250565b6000610e7e601983610e37565b9150610e8982610e48565b602082019050919050565b60006020820190508181036000830152610ead81610e71565b9050919050565b7f4e487b7100000000000000000000000000000000000000000000000000000000600052601160045260246000fd5b6000610eee82610c9e565b9150610ef983610c9e565b9250828203905081811115610f1157610f10610eb4565b5b92915050565b7f41756374696f6e20456e64656400000000000000000000000000000000000000600082015250565b6000610f4d600d83610e37565b9150610f5882610f17565b602082019050919050565b60006020820190508181036000830152610f7c81610f40565b9050919050565b6000610f8e82610c9e565b9150610f9983610c9e565b9250828202610fa781610c9e565b91508282048414831517610fbe57610fbd610eb4565b5b5092915050565b7f5468652062696420616d6f756e742073656e7420697320746f6f206c6f770000600082015250565b6000610ffb601e83610e37565b915061100682610fc5565b602082019050919050565b6000602082019050818103600083015261102a81610fee565b9050919050565b60006040820190506110466000830185610d9b565b6110536020830184610d9b565b9392505050565b60008151905061106981610d42565b92915050565b60006020828403121561108557611084610cd2565b5b60006110938482850161105a565b91505092915050565b7f42696420616d6f756e742061636365707465642c20627574206269642066616960008201527f6c65642062656361757365206e6f7420656e6f7567682062616c616e6365207460208201527f6f207472616e7366657220657263323020746f6b656e00000000000000000000604082015250565b600061111e605683610e37565b91506111298261109c565b606082019050919050565b6000602082019050818103600083015261114d81611111565b9050919050565b60006060820190506111696000830186610d9b565b6111766020830185610d9b565b6111836040830184610ca8565b949350505050565b61119481610dc5565b811461119f57600080fd5b50565b6000815190506111b18161118b565b92915050565b6000602082840312156111cd576111cc610cd2565b5b60006111db848285016111a2565b9150509291505056fea264697066735822122019d480b4670057fd28dc96b590345c19329b8f54392d6b2072862646f872835064736f6c63430008110033",
  "linkReferences": {},
  "deployedLinkReferences": {}
}